:020000040000fa
:080000000002040000000000f2
:020000040000fa
:100400000f802000007f2200000188000000000013
:100410000c000700803920000100200011000700b7
:10042000000020000000e000020032000000020096
:100430000000000090020200000000000040da000e
:100440000000fe004440a900000020000000e00081
:100450000300320000002000a00188004440a800f2
:100460000000060091018800800078000000eb0089
:1004700015003700e280400032a0b4009101ba00bc
:10048000e280400032a0b4009102ba00e280400055
:1004900032a0b4000002eb00472bde00f507b200eb
:1004a000602ce10004003a000059eb008301e900f0
:1004b000fdff3e00040037006128e100010032002a
:1004c0000082eb00040007001101ba000200e00006
:1004d000e8ff3a00000006003159ba008301e90044
:1004e0000c0032002159ba008301e90008003200f3
:1004f0000400e00003003a00e280400032a0b400b3
:10050000f5ff370011d9ba008301e900faff3a007c
:100510008100e800e180400032a0b4000000060045
:020000040000fa
:0200000401f009
:04000000ffff0000fe
:020000040000fa
:0200000401f009
:04000800ffff0000f6
:020000040000fa
:0200000401f009
:04000c0079ff000078
:020000040000fa
:0200000401f009
:040010005bff000092
:020000040000fa
:0200000401f009
:0400140079ff000070
:020000040000fa
:0200000401f009
:04001800fcff0000e9
:020000040000fa
:0200000401f009
:04001c00deff000003
:020000040000fa
:100008009a0300009a0300009a0300009a03000074
:100018009a0300009a0300009a0300009a03000064
:100028009a0300009a0300009a0300009a03000054
:100038009a0300009a0300009a0300009a03000044
:020000040000fa
:020000040000fa
:100520000e00fa00c062a900c042a900c102a900e1
:10053000c462a800c442a800c502a800c142a90024
:10054000c0e2a900d0a2a900d4a2a900c4e2a900d7
:10055000c542a900313a800000e02f000080600011
:100560006105200001007000303a880051742000bd
:1005700091407800f0c8b30000c060000044a000c3
:1005800045e7b700013220009140780000ceb3006b
:1005900000c0700020e3b7002043a90023c3bf00c0
:1005a0007f40600001c2b3000140700023e3b70048
:1005b00025e3a800513220009140780000ceb3001e
:1005c00000c06000a040b30025e3b70021e3a8000d
:1005d000913220009140780000ceb30000c060004e
:1005e00029e3b700813220009140780000ceb300ab
:1005f00000c0600028e3b700c0002000500798004a
:100600000000eb00400798000000eb003007980066
:100610006000b800008fbe00c462a8005e009000b9
:100620007f4060007f41600091322000914078005f
:1006300000ceb30000c060000240700029e3b700a4
:100640005e0090007f4060007f41600081322000aa
:100650009140780000ceb30000c0600002407000fe
:1006600028e3b7004e00900067406000c500dd0041
:1006700023c3bf007f4060000140700023e3b70048
:10068000be0090002e00900000805000600798008f
:100690006e0090000000e00003003d00ee009000be
:1006a0008100ea00610798006e009000ea0f500098
:1006b00008003400c462a8006000b800008fbe00cb
:1006c000be009000210798006000b800008fbe00b7
:1006d0000b003700e0ff2f0001002000be0f1000cc
:1006e000ae8f180005003e00100020000100200021
:1006f0001e0f40005e97480001003700c462a90049
:100700002023a80020c3bf00624060000004e00076
:10071000fcff3a0020c3bf00614060000004e0001d
:10072000fcff32000118800031079800bbff370042
:020000040000fa
:0407300000000000c5
:020000040000fa
:040734000000fe00c3
:00000001FF
