:020000040000fa
:080000000002040000000000f2
:020000040000fa
:100400004f802000007f22000001880000000000d3
:100410000c000700a041200001002000110007008f
:10042000000020000000e000020032000000020096
:1004300000000000e4030200000000000040da00b9
:100440000000fe004440a900000020000000e00081
:100450000300320000002000a00188004440a800f2
:100460000000060091018800800078000000eb0089
:1004700015003700e280400032a0b4009101ba00bc
:10048000e280400032a0b4009102ba00e280400055
:1004900032a0b4000002eb00472bde00f507b200eb
:1004a000602ce10004003a000059eb008301e900f0
:1004b000fdff3e00040037006128e100010032002a
:1004c0000082eb00040007001101ba000200e00006
:1004d000e8ff3a00000006003159ba008301e90044
:1004e0000c0032002159ba008301e90008003200f3
:1004f0000400e00003003a00e280400032a0b400b3
:10050000f5ff370011d9ba008301e900faff3a007c
:100510008100e800e180400032a0b4000000060045
:020000040000fa
:0200000401f009
:04000000ffff0000fe
:020000040000fa
:0200000401f009
:04000800ffff0000f6
:020000040000fa
:0200000401f009
:04000c0079ff000078
:020000040000fa
:0200000401f009
:040010005bff000092
:020000040000fa
:0200000401f009
:0400140079ff000070
:020000040000fa
:0200000401f009
:04001800fcff0000e9
:020000040000fa
:0200000401f009
:04001c00deff000003
:020000040000fa
:100008002a0400002a0400002a0400002a04000030
:100018002a0400002a0400002a0400002a04000020
:100028002a0400002a0400002a0400002a04000010
:100038002a0400002a0400002a0400002a04000000
:100048002a0400002a0400002a0400002a040000f0
:10005800f40200002a0400002a0400002a04000018
:100068002a0400002a0400002a0400002a040000d0
:100078002a0400002a0400002a0400002a040000c0
:100088002a0400002a0400002a0400002a040000b0
:100098002a0400002a0400002a0400002a040000a0
:1000a8002a0400002a0400002a0400002a04000090
:1000b8002a0400002a0400002a0400002a04000080
:1000c8002a0400002a0400002a0400002a04000070
:1000d8002a0400002a0400002a0400002a04000060
:1000e8002a0400002a0400002a0400002a04000050
:1000f8002a0400002a0400002a0400002a04000040
:100108002a0400002a0400002a0400002a0400002f
:100118002a0400002a0400002a0400002a0400001f
:100128002a0400002a0400002a0400002a0400000f
:100138002a0400002a0400002a0400002a040000ff
:100148002a0400002a0400002a0400002a040000ef
:100158002a0400002a0400002a0400002a040000df
:100168002a0400002a0400002a0400002a040000cf
:100178002a0400002a0400002a0400002a040000bf
:100188002a0400002a0400002a0400002a040000af
:100198002a0400002a0400002a0400002a0400009f
:1001a8002a0400002a0400002a0400002a0400008f
:1001b8002a0400002a0400002a0400002a0400007f
:1001c8002a0400002a0400002a0400002a0400006f
:1001d8002a0400002a0400002a0400002a0400005f
:1001e8002a0400002a0400002a0400002a0400004f
:0801f8002a0400002a040000a3
:020000040000fa
:100208002a0400002a0400002a0400002a0400002e
:100218002a0400002a0400002a0400002a0400001e
:100228002a0400002a0400002a0400002a0400000e
:100238002a0400002a0400002a0400002a040000fe
:100248002a0400002a0400002a0400002a040000ee
:10025800f40200002a0400002a0400002a04000016
:100268002a0400002a0400002a0400002a040000ce
:100278002a0400002a0400002a0400002a040000be
:100288002a0400002a0400002a0400002a040000ae
:100298002a0400002a0400002a0400002a0400009e
:1002a8002a0400002a0400002a0400002a0400008e
:1002b8002a0400002a0400002a0400002a0400007e
:1002c8002a0400002a0400002a0400002a0400006e
:1002d8002a0400002a0400002a0400002a0400005e
:1002e8002a0400002a0400002a0400002a0400004e
:1002f8002a0400002a0400002a0400002a0400003e
:100308002a0400002a0400002a0400002a0400002d
:100318002a0400002a0400002a0400002a0400001d
:100328002a0400002a0400002a0400002a0400000d
:100338002a0400002a0400002a0400002a040000fd
:100348002a0400002a0400002a0400002a040000ed
:100358002a0400002a0400002a0400002a040000dd
:100368002a0400002a0400002a0400002a040000cd
:100378002a0400002a0400002a0400002a040000bd
:100388002a0400002a0400002a0400002a040000ad
:100398002a0400002a0400002a0400002a0400009d
:1003a8002a0400002a0400002a0400002a0400008d
:1003b8002a0400002a0400002a0400002a0400007d
:1003c8002a0400002a0400002a0400002a0400006d
:1003d8002a0400002a0400002a0400002a0400005d
:1003e8002a0400002a0400002a0400002a0400004d
:0803f8002a0400002a040000a1
:020000040000fa
:100520000000fa00d4a2a900c4e2a900c542a900b3
:10053000c142a900c0e2a900d0a2a9000080fa002f
:10054000000006000000fa00c462a900c502a9006c
:10055000c442a900c062a900c042a900c102a9000a
:100560000080fa00000006000000fa0001322000be
:100570009140780000ceb30000c0700020e3b700c7
:100580002043a90023c3bf007f40600001c2b30025
:100590000140700023e3b70025e3a800513220009a
:1005a0009140780000ceb30000c06000a040b300ce
:1005b00025e3b70021e3a8009132200091407800a4
:1005c00000ceb30000c0600029e3b70081322000f4
:1005d0009140780000ceb30000c0600028e3b7006f
:1005e0000080fa00000006003400f800881f780040
:1005f00008002000a80188004f0478000000fa00dd
:100600008580a9000080fa003400f900004006004f
:100610000000fa00516c20009140780000ceb30039
:1006200000c060003040b300c5e6b7002002a9005a
:10063000012220009140780090cfb30000c06000fc
:1006400020e2b70020a2a9002062a9001008200023
:100650004011880023a2a90023e2a8009580a800e9
:1006600021e2a8002342a8001006200020118800e3
:100670000080fa00000006000c00fa00c000200014
:10068000400798000000eb00300798006000b800b9
:10069000008fbe004e0090007f4060007f416000f0
:1006a000913220009140780000ceb30000c060007d
:1006b0000240700029e3b7004e0090007f406000c8
:1006c0007f416000813220009140780000ceb3006d
:1006d00000c060000240700028e3b7003e009000b8
:1006e00067406000c500dd0023c3bf007f4060009d
:1006f0000140700023e3b700114080002e009000fd
:1007000000805000500798005e0090000000e0005c
:1007100003003d00de0090008100ea0051079800d0
:1007200000c8bf000080fb00de009000808f5000fa
:100730000d003500c462a8006000b800008fbe0044
:1007400010408000200798006000b800008fbe00b5
:1007500010408000c200de00f00f2000008060002a
:10076000201188000b003700e0ff2000010020006e
:10077000be0f1000ae8f180005003e0010002000d4
:10078000010020001e0f40005e9748000100370066
:10079000c462a9002023a80020c3bf0062406000fb
:1007a0000004e000fcff3a0020c3bf00614060008d
:1007b0000004e000fcff32000018800010408800b8
:1007c0000080fa00000006000000fa00600220002d
:1007d000303a880044c7bf00f043b20044e7b70096
:1007e000417420009140780000ceb30000c060004a
:1007f00044e7b70060012000403a880051742000af
:1008000091407800f0c8b30000c060000044a00030
:1008100045e7b70042c7bf000042b2000004e00055
:10082000fcff32007aff07004fff070092ff07002e
:04083000feff370090
:020000040000fa
:100834000008000002000000020000000a0000009e
:100844000208000002000000000000000000000098
:020000040000fa
:040854000000fe00a2
:00000001FF
