:020000040000fa
:080000000002040000000000f2
:020000040000fa
:10040000cfa920000eff20000e0188000000000090
:100410000c00070080592100010020001100070096
:10042000000020000000e000020032000000020096
:1004300000000000300a0200000000000040da0066
:100440000000fe004440a900c00b20000000e000b6
:100450000300320000002000a00188004440a800f2
:100460000000060091018800800078000000eb0089
:1004700015003700e280400032a0b4009101ba00bc
:10048000e280400032a0b4009102ba00e280400055
:1004900032a0b4000002eb00472bde00f507b200eb
:1004a000602ce10004003a000059eb008301e900f0
:1004b000fdff3e00040037006128e100010032002a
:1004c0000082eb00040007001101ba000200e00006
:1004d000e8ff3a00000006003159ba008301e90044
:1004e0000c0032002159ba008301e90008003200f3
:1004f0000400e00003003a00e280400032a0b400b3
:10050000f5ff370011d9ba008301e900faff3a007c
:100510008100e800e180400032a0b4000000060045
:100520000040da000000fe0031e2a90097c0a900f7
:1005300097e0a90087c0a90087e0a9000000060095
:1005400087c0a90087e0a900e7416000310b2000c7
:100550009140780082cfb30082c0600083c07000f9
:100560008000fd00b3e0b7008000fd0001c7b300cc
:1005700081416000310b200091407800f2c8b30047
:1005800082c0600083c070008000fd00b3e0b7004f
:100590008000fd00680160004311de004611dd00af
:1005a00071092000914078000164a10082c07000b0
:1005b0008000fd0097e0b7008000fd000008b20059
:1005c0004700de004700dd007109200091407800ff
:1005d0000174a10080c070000100780097e0b700ae
:1005e0000000060032c2bf0061006000000006008b
:1005f000c211880080118800911188000100370025
:10060000b011800032c2bf000008a300fcff3a0016
:1006100087c0a900000006000001be0070000700ae
:100620000470a70003f0a1006509b10016003200b4
:100630000d0035006828e10006003500f0ff2f00ae
:10064000f1ff27000300e00013003b000100280039
:100650000000050000004000818048008502e9009c
:10066000fcff3a0008003700f88f420002003c000f
:100670008000eb00000005008100d1000080d30065
:100680008502e800fcff3a000300e00002003b00a6
:1006900060001000e080180000000600889fbe0087
:1006a0008a9fbe00010578000100e00004003500cb
:1006b00008003c000000e000200032000500370088
:1006c00060001000e080180002003b0001f02c00e8
:1006d0001a0037000004be006011b8006b0920004a
:1006e0000982cf00020039000882cf000441b00027
:1006f000694252000e00320008003b008281710006
:10070000610164008904d1000884d3008b05e800ee
:100710000442e800f9ff3a000500370008044400ed
:1007200089844c008b05e9000442e900fbff3a0094
:10073000050007000af0a70001f0a0004f05be0069
:100740004f04be00000006008100200061805500bb
:100750000b003d000b00200061fe2f000100e100b6
:100760001d00340082817100610164008904d100a0
:100770000884d3000000e800faff3a00710020006e
:100780006100640003007000020060000900320094
:1007900061044400e0844c000988a5000500320093
:1007a0008b05e8006808e10002003a008904d100e6
:1007b0000884d300f20f20000258e10005003d003c
:1007c000c75ddd00f907b200898075000800780078
:1007d000000006000bf827008b00780000000500e1
:1007e000c70ade00f107b200f50fb20008003200c0
:1007f000e1cf4200020032000170a0002400050099
:10080000810f70000100320004080500440005005b
:10081000810f700002003a00140005008502e90013
:100820000000400081c04800fcff3b000170a000b8
:1008300024000500889fbe008a9fbe008c1f7800a0
:10084000400007004700330003866c006450e1005d
:10085000240032006420e100270032006150e100f2
:10086000220032006120e100210032008b8542002d
:10087000eb07b1000134b800003ab80008044200a8
:1008800089844a00013ab8000030b80088804000ee
:1008900009014a0004003300000040008180480044
:1008a000020149008b05e900c909dd0083017000e0
:1008b0000100320013002000c814de004814dd00df
:1008c0004709de001200b200c808de00088470008c
:1008d0009dff070001f0a1000cf0a70001f0a000af
:1008e000290037006120e1002b0032000801be0022
:1008f0000200be00f7ff37006150e100fcff3a0044
:10090000250037006022b800060220000000d00059
:100910008180d2000482d2008582d2000000a00033
:100920000202520083825a00030031000202420098
:1009300083824a000000a1000603e900f3ff3a00a9
:10094000000006000004be00a5ff07000003be0073
:100950000405be000200be00a1ff0700844f750021
:10096000000006000200be006450e10005003600f1
:100970006420e100020036000968a30001003a008b
:100980000800be000160a0004f0678004f05be00c1
:100990004f04be0000000600f0ff2f00f1ff27000b
:0409a000f9ff370024
:020000040000fa
:0200000401f009
:04000c00f9ff0000f8
:020000040000fa
:0200000401f009
:04001000fbff0000f2
:020000040000fa
:0200000401f009
:04001c00fdff0000e4
:020000040000fa
:1000080090020000900200009002000090020000a0
:100018009002000090020000900200009002000090
:100028009002000090020000900200009002000080
:1000380090020000900200009002000044170000a7
:100048008414000090020000b01300009002000029
:100058009002000090020000900200009002000050
:100068009002000090020000900200009002000040
:100078009002000090020000900200009002000030
:100088009002000090020000900200009002000020
:100098009002000090020000f2100000d010000052
:1000a8009002000090020000900200009002000000
:1000b80090020000900200009002000090020000f0
:1000c80090020000900200009002000090020000e0
:1000d80090020000900200009002000090020000d0
:1000e80090020000900200009002000090020000c0
:1000f80090020000900200009002000090020000b0
:10010800900200009002000090020000900200009f
:10011800900200009002000090020000900200008f
:10012800900200009002000090020000900200007f
:10013800900200009002000090020000900200006f
:10014800900200009002000090020000900200005f
:10015800900200009002000090020000900200004f
:10016800900200009002000090020000900200003f
:10017800900200009002000090020000900200002f
:10018800900200009002000090020000900200001f
:10019800900200009002000090020000900200000f
:1001a80090020000900200009002000090020000ff
:1001b80090020000900200009002000090020000ef
:1001c80090020000900200009002000090020000df
:1001d80090020000900200009002000090020000cf
:1001e80090020000900200009002000090020000bf
:0801f8009002000090020000db
:020000040000fa
:10020800900200009002000090020000900200009e
:10021800900200009002000090020000900200008e
:10022800900200009002000090020000900200007e
:1002380090020000900200009002000044170000a5
:100248008414000090020000b01300009002000027
:10025800900200009002000090020000900200004e
:10026800900200009002000090020000900200003e
:10027800900200009002000090020000900200002e
:10028800900200009002000090020000900200001e
:100298009002000090020000f2100000d010000050
:1002a80090020000900200009002000090020000fe
:1002b80090020000900200009002000090020000ee
:1002c80090020000900200009002000090020000de
:1002d80090020000900200009002000090020000ce
:020000040000fa
:100a840000000000f7090000f8090000f90900005f
:100a9400f6090000fa090000f4090000fb0900004f
:100aa400fc090000fd090000260a0000010a0000fc
:100ab400020a0000030a0000000a0000040a000001
:100ac400fe090000050a0000060a0000070a0000eb
:100ad400280a0000f7090000f8090000f9090000dd
:100ae400f6090000fa090000f4090000fb090000ff
:100af400fc090000fd090000260a0000f0090000be
:100b0400f1090000f2090000eb090000ec09000003
:080b1400ed090000ea090000f0
:020000040000fa
:100b1c00c2c2bf000080fb004300de000004a20044
:100b2c00e1406000cac2bf000028a30001003a00e7
:100b3c0081c0e800c2c2bf000028a30001003a0037
:100b4c00e4c04000cac2bf000038a30001003a0054
:100b5c00e8c040000180fb00000006000000eb0034
:100b6c00200488003004880060048800000006001f
:100b7c000000eb000027880010278800c902a9009c
:100b8c00c8e2a900cce2a80071a0a8006ec0a80021
:100b9c0071c0a8006ee0a800c2c2bf00684060002f
:100bac000080fb000000ea00cf00de0020c0b30094
:100bbc0081405000cac2bf000028a30001003a00c7
:100bcc0081c0e800c2c2bf000028a30001003a00a7
:100bdc00e4c04000cac2bf000038a30001003a00c4
:100bec00e8c0400001007800f1e9b7000000060001
:100bfc0000017800100078000018a30010003a00e3
:100c0c000008a3000400320030f02f00120960002d
:100c1c00c00c200007003700120078004200de00f4
:100c2c000040e800f003b2004200dd0031f02f007c
:100c3c001289600012097000f00f2c000f003700b1
:100c4c000008a30004003a00f00f2c001209600009
:100c5c000030230007003700120078004800de0047
:100c6c000040e800f003b2004800dd00f10f2c005a
:100c7c00128960001209700030f02f001209600018
:100c8c009201780083007800c10fb200800c200024
:100c9c00808f500002003a001200a00007003700bd
:100cac0000f02300008061008001eb000120230094
:100cbc00810f500002003a001200a1001300200026
:100ccc000300780000000600881f78000003be00b7
:100cdc000204780084027800631890000008a300d6
:100cec003500320094007800648060000800320007
:100cfc00344090000080fb00000b780044409000d2
:100d0c000080fb00800b78005440900007003700f7
:100d1c00134090000080fb00000b780023409000f3
:100d2c000080fb00800b7800334090000080fb00bb
:100d3c00000c780095007800688060000b00320091
:100d4c00254090000080fb001680b900000b780055
:100d5c00254090000080fb001780b900800b7800c4
:100d6c00254090000080fb00070037001380fb003b
:100d7c001680b900000b78001380fb001780b900b7
:100d8c00800b78001380fb001880b900000c7800f1
:100d9c0095007800628060002a00320023009000e9
:100dac000018a300270032000000eb00000b7800b5
:100dbc00800b78002200370094007800618060007e
:100dcc0011003200344090000080fb002441900060
:100ddc000281fb000280b900000b780044409000b7
:100dec000080fb00244190000281fb000280b900ce
:100dfc00800b7800544090000080fb002441900050
:100e0c000281fb000d003700134090000080fb00b6
:100e1c001381fb000280b900000b78002340900086
:100e2c000080fb001381fb000280b900800b78006e
:100e3c00334090000080fb001381fb000280b9005e
:100e4c00000c7800160278000400e8000371220000
:100e5c00110009000380d800154990000281fb00a5
:100e6c000280b900000b5200170278000400e80061
:100e7c00110009000380d800154990000281fb0085
:100e8c000280b900800b5200180278000400e800c0
:100e9c00110009000380d800154990000281fb0065
:100eac000280b900000c5200168bea00978bea0006
:100ebc00188cea00160078004400de00000b780065
:100ecc00170078004400de00800b780018007800d2
:100edc004400de00000c78004f047800000006008f
:100eec000600fa00cbc2bf004500de0062006000c5
:100efc00715480000110a100808070007154880032
:100f0c00e0a820003aff07000000e00013003200c8
:100f1c00705480000008a30008003200c700dd00f8
:100f2c00ccc2bf000074a10001407000cce2b7003d
:100f3c00264aa800260aa800080037007154800031
:100f4c00c708dd00ccc2bf000074a10001407000d6
:100f5c00cce2b700262aa800260aa900449f20004c
:100f6c00a39e200064815700e68057000f80e900a3
:100f7c0055ff07006fb89700d05388007fb89700d3
:100f8c00e05388005fb89700c05388000080fa00d7
:100f9c00000006000600fa00881f780088548000c4
:100fac004c0707008000ea0080807000cf08de004c
:100fbc00e1801000810f54001f003200450707002c
:100fcc008000ea0080807000cf08de0010c0b30003
:100fdc0081405000e1806000705480000000a1004e
:100fec000100700070548800614160008280fb0039
:100ffc00815488000008a30008003200c710dd00ef
:10100c00ccc2bf000074a10001407000cce2b7005c
:10101c00264aa800260aa80007003700c710dd00e2
:10102c00ccc2bf000074a10001407000cce2b7003c
:10103c00262aa800260aa900449f2000a39e20006f
:10104c0066815700e8805700648057001eff070038
:10105c00dfb99700d35388006fb99700e25388002b
:10106c00cfb89700c1538800c0a72000e4a520008a
:10107c000208780071b89f0063b89f0066005000aa
:10108c00840f5000faff3a004f0478000080fa00f9
:10109c00000006000600fa00889fbe008a1f780038
:1010ac00b12c200091407800c508de00e280600081
:1010bc00d2ff2f007054800002006000010070000d
:1010cc0070548800212c200091407800e280600050
:1010dc0060548000020060000100700060548800c1
:1010ec00e0a82000c2fe07000000e0001300320060
:1010fc00705480000008a30008003200c700dd0017
:10110c00ccc2bf000074a10001407000cce2b7005b
:10111c00264aa800260aa80008003700715480004f
:10112c00c708dd00ccc2bf000074a10001407000f4
:10113c00cce2b700262aa800260aa900c0a82000e5
:10114c00abfe07000000e00013003200605480008a
:10115c000008a30008003200c700dd00ccc2bf00ad
:10116c000074a10001407000cce2b700284aa8002e
:10117c00280aa8000800370061548000c708dd0069
:10118c00ccc2bf000074a10001407000cce2b700db
:10119c00282aa800280aa900a89e2000ea84570043
:1011ac0068855700449f2000880178000901780069
:1011bc00ec8057000a007800c3fe0700e49f200073
:1011cc008801780009017800ec8057000a0078004b
:1011dc00bdfe07003fb99700d2538800cfb89700e7
:1011ec00e15388002fb89700c0538800a2538800a1
:1011fc00b1538800905388004f0578004f04be000f
:10120c000080fa0000000600b69e2000164378000d
:10121c00eac9bf000683fb000080fb0000b3b900e5
:10122c00c49e200014427800eac9bf000482fb006f
:10123c000080fb0000a2b900edc9bf00a29e2000f7
:10124c00124178000080fb000281fb000280b90093
:10125c004433de004421de004400de00c1a7200040
:10126c00e3a5200086087800f2b89f00e0b89f0044
:10127c00e6805000838f5000faff3a000000060011
:10128c00b69e200016437800eac9bf000683fb0017
:10129c000080fb0000b3b900c49e2000144278000b
:1012ac00eac9bf000482fb000080fb0000a2b90069
:1012bc00edc9bf00a29e2000124178000080fb0007
:1012cc000281fb000280b9004433de004421de00c1
:1012dc004400de00c1a72000e3a5200086087800aa
:1012ec00f2b89f00e0b89f00e6805000838f50005a
:1012fc00faff3a0000000600f0c9bf00e44f5000ae
:10130c000c00320005003e00e24f50000c00320091
:10131c00e34f50000b003a0005003700e54f50003a
:10132c0006003200e64f500006003a00020037007b
:10133c00ebfe370057ff370016ff3700d0ff3700a2
:10134c00b1ff070000000600f0c9bf00e44f5000d9
:10135c000d00320005003e00e24f50001400320038
:10136c00e34f500014003a0005003700e54f5000e1
:10137c000c003200e64f50000f003a000600370018
:10138c006f80a800070037006f80a8006e60a8006f
:10139c0020c0b300040037007a0507007001070075
:1013ac006a05070010c0b300f2e9b70000000600a0
:1013bc0010c0b300f2e9b70000000600881f7800e7
:1013cc004402070000042000b60107008040eb0037
:1013dc0001407800030307008040eb0001407800d7
:1013ec00000307008040eb0000c0eb009b020700ed
:1013fc008040eb0000c0eb00b1020700cd020700fb
:10140c0080007800f103b2000028a3000200320033
:10141c000130a00002003700800078007103b20098
:10142c000038a30003003200010478000820a0005b
:10143c0002003700010478000820a1000840780061
:10144c00e201070008007800f0e9b7004f047800cb
:10145c0000000600c1fd070045c7bf0081cfb300e7
:10146c000140600045e7b70062060700c0fd0700b9
:10147c00d2ff0700b4ff07003f03070093060700e5
:10148c00bd040700660407000060fe00920ae2003b
:10149c0003003200922aef0097ff07006004070058
:1014ac00940ae200f8ff3200942aef00eec9bf0064
:1014bc000000d100610060000004a2000040400068
:1014cc00e19e2000914078000114a10080c07000c2
:1014dc0001007800eee9b700ebff3700881f7800b9
:1014ec00000478000100e0000c003a00e0289000b5
:1014fc00502890004209dd004e00de000000710013
:10150c00ce88de0062fc0700a2702d0033c22300df
:10151c00c5fc07003dfc07004034980048309000a3
:10152c00cf80de005afc0700a299290093f123001a
:10153c00bdfc070035fc0700503498004f047800c0
:10154c000000060000017800c028900030289000b0
:10155c00e00f5000e08f580004003a002200900089
:10156c00b200900030299800412998005228900030
:10157c00e2289000e00f5000e08f580008003a007d
:10158c0022009000b2009000ce09dd00c200de0007
:10159c00818071004e00dd0050299800612998006f
:1015ac0012309000a2309000e00f5000e08f5800f5
:1015bc0008003a0052289000e2289000c209dd0091
:1015cc004e00de0000807100ce88de0010319800e5
:1015dc002131980000000600889fbe0000027800b0
:1015ec0020049000b0049000e02890005028900057
:1015fc004209dd004e00de0000007100ce88de00e6
:10160c00702a980001329800742b9000843390005b
:10161c007428900084309000080050008980580095
:10162c004240a900060034007428900084309000d9
:10163c0008005000898058000003530081835b0030
:10164c0014309000a4309000800f5300818f5b0009
:10165c000700350014319000a431900074289000dc
:10166c0084309000800f5100818f59000a003d009a
:10167c0014319000a431900014309000a4309000ec
:10168c000000530081805b00020140008381480010
:10169c001232980023329800743090000000e00061
:1016ac0013003a007428900084309000000054001d
:1016bc0081805c004240a900050034005428900051
:1016cc00e428900002802000030020000400370072
:1016dc0054289000e428900002802f00f3ff2f0084
:1016ec000000410081804900502a9800612a98002e
:1016fc004f04be00000006000000eb0030488800dc
:10170c00e34b80000001780027072000a690200002
:10171c006022b800040037000790b90000004300b5
:10172c000488be000201e800830f5100faff390063
:10173c000629ef00330037000429ef0021003700a1
:10174c0001407800570407006102b8000448880083
:10175c0015488800264880002007200000b0b900fa
:10176c00a3902000030140001209420052914a004c
:10177c00020520000001410062807900cf80de006c
:10178c00840f5000858f58000100310004b179009e
:10179c002007200000b0b900220520000001410004
:1017ac00a390200062807900cf80de00800f520071
:1017bc00818f5a000100310004b179000600e80065
:1017cc002048880021488000e04b8000808f50002a
:1017dc00dbff3900200720000088b900a290200010
:1017ec00000141001200be006f0060008000eb00a1
:1017fc000000e8008100e800808f5000fdff3a00f7
:10180c000629ec0030488000ff0f5000caff36005c
:10181c0070488000814880007f0060000000060056
:10182c00881f780000047800002890009828900009
:10183c0001005000202c98000000eb00002c9800b8
:10184c000080eb00102c980028299000cf91de002e
:10185c00c002200008004000eb040700202c980078
:10186c00783090000000e00003003a002828900037
:10187c004200dd00603498004f0478000000060040
:10188c00889fbe008a9fbe008c9fbe009aff0700f7
:10189c00800678000829ef00250037002a07200071
:1018ac000a88b900ac90200000004600dcff07005d
:1018bc00484880000ac4b9000c0044001001be0066
:1018cc00680044000c004000cf0407000c044400e6
:1018dc002004980031049800404880000a80b90028
:1018ec00000046003cff0700404880000a80b90019
:1018fc00000178000c004000702a900080329000ab
:10190c00a030900010309000800052006006200043
:10191c00020040000c004000f00407004148800029
:10192c000a8db9000a004600ecfe07000829ec00fd
:10193c0041488000e04b8000808f5000d7ff390079
:10194c000d0078004f06be004f05be004f04be00d0
:10195c00000006008000eb007130980000000600cb
:10196c007200fa00889fbe008a9fbe008c1f780010
:10197c0010002000e04b88005fff07005eff0700af
:10198c0040f82f000f004000214d280038000900be
:10199c00311878002007b100e24b80008000eb008a
:1019ac00a0902000230020000a00370044f82f00ec
:1019bc000f02420071000900345878002007b10072
:1019cc002407b10053109800732098008100e800a0
:1019dc002007b000828f5000f4ff39000c0120006a
:1019ec0045ff07008005eb000c003700280720009e
:1019fc0008dcb900aa9020000a0044001001be00c7
:101a0c00680044000a0040007f0407000a044400f8
:101a1c0020049800310498008b05e800e04b80000e
:101a2c00808f5500f1ff39000c06e900ecff3a00fd
:101a3c000c057800a89020001200370008007800f0
:101a4c00c4ff070008007800befe07008a0078007b
:101a5c0008007800a1fe07002007200000d0b90084
:101a6c0000027800a1902000010042001001be008d
:101a7c006800420001004000630407000a05e8000a
:101a8c002807b000e04b8000800f5500ebff3900b9
:101a9c004f0678004f05be004f04be000080fa00d0
:101aac000000060096eab70000000600000178006e
:101abc0098cabf00e44f500005003e00e34f5000b1
:101acc0008003100e24f50002b003a001c00370098
:101adc00e54f50001a003200e64f500026003a0045
:101aec000d0037000200ea00020070004f00de001b
:101afc0011c0b30000c0500001406000412c200018
:101b0c00914078000104a10080c0700001007800b1
:101b1c00c4e2b700000006000200ea0002007000f8
:101b2c004f00de0011c0b30000c050004700dd00c4
:101b3c00d12c2000914078000174a1000a003700dc
:101b4c000200ea00020070004f00de0011c0b3007a
:101b5c0000c05000014060004600dd00d12c200088
:101b6c00914078000164a10080c0700001007800f1
:101b7c00cde2b700000006008200ea00828070000f
:101b8c00cf08de0010c0b3008140500080c160005f
:101b9c004619dd00cdc2bf000064a10002407000f8
:101bac00cde2b700c4c2bf000004a1000340700026
:101bbc00c4e2b700c708dd00cdc2bf000074a100ad
:101bcc0001407000cde2b7000000060098eab700b3
:101bdc00c9c2a800c002a800c9e2a800e44f500086
:101bec0005003e00e34f500008003100e24f50006a
:101bfc000b003a0009003700e54f50000700320097
:101c0c00e64f500006003a0002003700c002a9005f
:101c1c0000000600c9e2a90000000600c9c2a90024
:101c2c00000006008001780040c2a90040c2bf003d
:101c3c000008a300020032004012800080427800ad
:101c4c000001eb000b0037008180fb0013007800d3
:101c5c00614078000080fb004012880040c2bf0049
:101c6c000008a300fdff3200401280008042780083
:101c7c000201e8008240780023409000804f510020
:101c8c00f1ff3900634090000004e00010003200c6
:101c9c000002eb008582fb0009003700451288002a
:101cac0040c2bf000008a300fdff320042128000ba
:101cbc008180fb0023009000827078000402e80011
:101ccc008440780063409000804f5200f3ff39004d
:101cdc00000006008001eb0013128800231288001c
:101cec00031288008540a9004302a80042c2a90043
:101cfc00212420009140780032ceb30082c06000d5
:101d0c00c140b3000100780042e2b70030c0b3001c
:101d1c004262b7004342a90042a2a80045e2a900d2
:101d2c0041a2a90040c2a90041e2a800834078006a
:101d3c00030078005dff0700c9c2a900c002a9001a
:101d4c00c9e2a9009540a900000006000e00fa00a7
:101d5c00881f78000004780061a920009140780069
:101d6c001000200051ff070058009000e10f5000b8
:101d7c000a003a0061a92000914078000104a000fb
:101d8c0038009000d0bf9f0008489000c0ff9f0013
:101d9c0020c0b30080ff9f000d0037000040eb0017
:101dac00c0ff9f0061a9200091407800280090009e
:101dbc00e10f500006003a0030c0b30080ff9f00d6
:101dcc0018009000a0f79f004800de00b0f79f00bd
:101ddc0081f79f001844780098f79f007080570097
:101dec00b0bf9f006a8057008eff070061a92000da
:101dfc00914078000000eb002cff07004f047800a6
:101e0c000080fa00000006000c00fa00c0f79f00ea
:101e1c000000eb00f0bf9f00b1bf9f00100020003e
:101e2c00c0bf9f006c805700c8ff07000080fa00fd
:101e3c00000006000c00fa00c0f79f001000200004
:101e4c00f0bf9f00d1bf9f00c2ff9f006c80570066
:101e5c00beff07000080fa00000006000080fb00b7
:101e6c00c808dd00810040000040eb00e6ff3700b1
:101e7c000080fb00c808dd008100400020c0b300da
:101e8c00e1ff37000080fb00c808dd008100400046
:101e9c0030c0b300dcff37000080fb00c808dd0059
:101eac008100400040c0b300d7ff37000080fb002a
:101ebc00c808dd008100400050c0b300d2ff3700dd
:101ecc000080fb00c808dd008100400060c0b3004a
:101edc00cdff37000200fa0022c0b3008f80e9006a
:101eec0070c0b300d3ff07007ff897004800dd00f7
:101efc006ff997008280fb00010040000080fa001f
:101f0c00000006000200fa0022c0b3008f80e90036
:101f1c0080c0b300c7ff07007ff897004800dd00c2
:101f2c006ff997008280fb00010040000080fa00ee
:101f3c00000006000200fa0012c0b3008f80e90016
:101f4c0090c0b300bbff07007ff897004800dd008e
:101f5c006ff997008280fb00010040000080fa00be
:101f6c00000006000200fa0022c0b3008f80e900d6
:101f7c00a0c0b300afff07007ff897004800dd005a
:101f8c006ff997008280fb00010040000080fa008e
:101f9c0000000600889fbe008004780001047800d1
:101fac00f0ff070000017800e10f540004003a0034
:101fbc000900e9000040dd008000710005003700d9
:101fcc008900e900100020000100dd000080ea001b
:101fdc0080006100a0c0b3008bff07004f04be005f
:101fec00000006000080fb00c808dd0081004000f6
:101ffc00a0c0b30084ff37000b0037007e49ec0013
:10200c00804078007ee9b700b31180000001fb002e
:10201c00609820000371780000c5b30080cf500099
:10202c00010034007e69ef006bf907000004e0004a
:10203c00f2ff3a00000006007ec9bf000000fb0062
:10204c006198200060c078000000fb0000000600d2
:10205c00cce2a900802aef00e7ff3700cce2a80011
:10206c001000200000548800000006000000fb0057
:10207c00a0118800000006001000200020548800e9
:10208c000000060030c2bf000058a30010003a0048
:10209c00842aef00c1118000c0062000808f500000
:1020ac0008003e00c11180006b005000808f500072
:1020bc0004003600c011800010548800e7ff0700b0
:1020cc000200370010548000c0118800caff0700be
:1020dc000000060083c9bf002198200091407800c1
:1020ec000104e1001a0031000080fb00014c80006b
:1020fc0060c07800ddff07008349ec0083e9b7007e
:10210c0021982000914078000104e1000500310085
:10211c000080fb00014c800060c07800d3ff0700fa
:10212c008369ec0083c9bf0021982000914078009e
:10213c000104e100070031000080fb00014c80002d
:10214c0060c07800c9ff07008369ec00000006003e
:10215c008429ef000000060012002000224c8800a9
:10216c00004c88008369ef008000fd0082e9b70015
:10217c008000fd00d7ff3700e8f80700b0fb2f0008
:10218c00ecf8070072062000f175220080402c004c
:10219c0014f937003600f800809fbe00829fbe0005
:1021ac00849fbe00869fbe003400f8000000200013
:1021bc00a001880087e0a900c6ff07003400f900e1
:1021cc004f03be004f02be004f01be004f00be00c9
:1021dc003600f900004006003600f800809fbe0073
:1021ec00829fbe00849fbe00869fbe003400f80014
:1021fc0000002000a001880087c0a90032c2bf00e7
:10220c000018a30003003a0032c2bf000038a3003c
:10221c00020032003222a9003262a90032c2bf0091
:10222c000028a3000b00320073ff070092ff070089
:10223c003242a90032c2bf000028a3001e003200a7
:10224c0031e2a9003242a90031e2a8003342a800d1
:10225c0019003700840ae2000200320089ff0700ef
:10226c0015003700800ae20003003200204c800089
:10227c00e10f50000d003a005fff07000e00370021
:10228c007e49ec007ee9b700b21180000000fb0033
:10229c006198200002f078008800070000c5b300a8
:1022ac007e49e300010034007e69ef00caf80700a4
:1022bc000004e000f2ff3a003400f9004f03be00c6
:1022cc004f02be004f01be004f00be003600f900a9
:1022dc0000400600586aef000000eb00e052880056
:1022ec00d052880000000600881f780081a52000cd
:1022fc00914078000181fb000201e90000a320005d
:10230c00624478008140e900cd02070000406c0077
:10231c000080fb000000ea004f00de000004a20079
:10232c000080fb004f04780000000600000006004f
:10233c00889fbe008a9fbe008c1f780030cabf00e9
:10234c00f1c3b300014560001ba320009b4578003e
:10235c0029a32000994478000046eb000004eb0010
:10236c000c0037000080fb0012a32000020140008b
:10237c008b80fb0080804000130020000a80fb0053
:10238c00a90107000000e00001003a001cc0b300e6
:10239c000804e80008407800894f5400f1ff390028
:1023ac000c04e00010003a000a00780030eab70094
:1023bc000944e8000800780058eab7008840780023
:1023cc0000a320009e0207000884fb0002a320004b
:1023dc0000747900584aec0058eab7008080fb0082
:1023ec00020078005cff07004f0678004f05be0026
:1023fc004f04be0000000600889fbe008a9fbe00ee
:10240c008c1f780030cabf00f1c3b30001446000d8
:10241c001ba320009b4578002aa320001a457800b6
:10242c000046eb008004eb000c0037000080fb0042
:10243c0032a32000020140008b80fb008080400012
:10244c008001eb000880fb00770107000000e00032
:10245c0001003a001cc0b3008904e8000940780070
:10246c008acf5400f1ff39000804e0000f0032005d
:10247c000c04e0000d003a0011c0b300010078001c
:10248c0058eab7000800780030eab70000a3200033
:10249c006b02070031eab700584aec0058eab70063
:1024ac008080fb0000a320002bff07004f06780064
:1024bc004f05be004f04be0000000600881f7800c8
:1024cc00ddfe0700004478005c0ae20005003a00db
:1024dc00440107000000e00002003a00dcfe0700a7
:1024ec002c00370010002000e052880082a520004c
:1024fc001241780070c2b300804f510006003e00bc
:10250c000280fb0001a3200008f078000240e800e4
:10251c0058eab700010037006eff070081a52000c4
:10252c0091407800e3cf50001a00360030cabf004b
:10253c000080fb004600de00e14f5000030032003b
:10254c00e34f500013003a0006003700c0fe0700ae
:10255c0065ff07000000e0000d00320074ff07006b
:10256c000b0037008180fb0032cabf000080fb00eb
:10257c0064004000808f500006003a00b4fe070053
:10258c0059ff07000000e000010032009aff07002d
:10259c0050ff07004f04780000000600f0c9bf0090
:1025ac00e44f500005003e00e34f5000080031009e
:1025bc00e24f500019003a0014003700e54f50006c
:1025cc0008003200e64f500014003a000a003700b1
:1025dc00cde2a900cde2a80000000000cde2a900e8
:1025ec0000000600c402a900c402a80000000000fc
:1025fc00c402a90000000600ccc2a900ccc2a800ed
:10260c0000000000ccc2a90000000600cde2a90029
:10261c00cde2a80000000000cde2a90000000600f9
:10262c00881f780040c2a90040c2bf000008a30068
:10263c00040032007ecabf000084fb008003eb0064
:10264c003f00370040128000faff37000002eb0019
:10265c0004037800e5a520006320b9008000780011
:10266c00800f530009003a000400430000004000b2
:10267c00e0807a00c408dd000080e80060807a0009
:10268c004800de006f0060000b0037000000e8001f
:10269c00800f53000a003a00040043000000400081
:1026ac00e0807a00c808dd000080e80060807a00d5
:1026bc004400de000080fb00008170000d0037003c
:1026cc000180e800800f53000a003a000400430028
:1026dc000000400060817a004c11dd000080e800b1
:1026ec0060807a00f1ff20000100600000017100a1
:1026fc000402e8004212880040c2bf000018a30088
:10270c00fdff3a0040c2bf000058a3000100320098
:10271c00401280000603e800ec0f5300ceff3a0095
:10272c0001c8b30041c2bf0067406000fdff3a0022
:10273c0040c2bf0001406000faff32008703e8008e
:10274c00888f5300c1ff390094ff07004f047800b5
:10275c0000000600801f78003400f8000000200004
:10276c00a0018800401280008540a9003400f900c7
:10277c004f007800004006000000eb0010128800ab
:10278c0020128800001288004402a8008540a9008d
:10279c004302a80042c2a90042c2bf0031ceb3001e
:1027ac0001406000c040b30042e2b70030c0b3004b
:1027bc004262b7004342a80042a2a80045e2a90029
:1027cc0041a2a90040c2a90041e2a80040c2bf003a
:1027dc00014060004041b30040e2b7009540a800c2
:1027ec00f0c9bf00e44f500005003e00e34f50001d
:1027fc000e003100e24f50000d003a000b00370084
:10280c00e54f500003003200e64f50000500320047
:10281c0007003700c002a90030c0b3007eeab70041
:10282c0003003700c8c2a90001003700c9e2a900a3
:10283c00e1a520008098eb00e0a72000808f5000dd
:10284c00fcff3a0000000600c9c2a900c982a90019
:10285c00cdc2a800cd82a800000006000004e00054
:10286c0006003a00cdc2a90048c3bf0001ceb30098
:10287c0001406000c040b30048e3b7000000060010
:10288c000004e00006003a00c9c2a80048c3bf001b
:10289c0001ceb30001406000a040b30048e3b70094
:1028ac0000000600881f780000447800e6ff07004f
:1028bc0008407800e9ff070000c7b300aa60b70022
:1028cc0008407800eeff070085a0a9004023a9006e
:1028dc00aac0bf00f1c8b300014060000043b300c0
:1028ec00aae0b70085c0bf000058a300fdff32006e
:1028fc00001880004f047800000006003600f80035
:10290c00809fbe00829fbe00849fbe00869fbe003b
:10291c003400f80000002000a00188008500a90008
:10292c00d7fb0700813821000100400070088800a7
:10293c003400f9004f03be004f02be004f01be0031
:10294c004f00be003600f900004006000a21ef00df
:10295c008038210070088800000228009008880048
:10296c00a8c0bf0081cfb300014060000004a000ec
:10297c00a8e0b7008500a9009500a80013e1a80005
:10298c0000000600e004a800e024a800e3c4a800ae
:10299c00cdc2a9000000eb00001a8800101a8800b4
:1029ac00201a8800a01a880045e3a80044e3b70069
:1029bc0042c3bf0031c8b3000140600042e3b7001e
:1029cc0085a0a90095a0a9004043a8004143a800f8
:1029dc0041e3a80040c3bf000018a300fdff320074
:1029ec00000006000041780002007800f003b200fd
:1029fc000b003200119f200091407800f3c3b3000c
:102a0c00034061008140500006003300f2c9bf0052
:102a1c008100fb000080fb00808f500001003d0016
:102a2c00100005000000050080027800e68f5000c1
:102a3c0008003c000300e00003003200018040006d
:102a4c00015828001100370001804000015828006f
:102a5c002f00370067825000f0c9bf00e44f5000d0
:102a6c0010003200e64f500002003200e34f5000dd
:102a7c002b003a00ea0f520029003c000300e00052
:102a8c000500320004004200c15628006080780026
:102a9c00104978002000370004004200c15628007d
:102aac001b003700ea0f52001d003c00f1c9bf00ab
:102abc0080c2520019003300f2c9bf008500fb0030
:102acc000080fb00808f500014003c000300e000ed
:102adc00080032000504e00003003200040042004c
:102aec0081552800e9ff37000400420041542800ba
:102afc00e6ff37000504e00003003200040042004a
:102b0c00815528000200370004004200415428007f
:102b1c006080780012487800100005000000060064
:042b2c0000000500a0
:020000040000fa
:102b3000300a00002e000000000000000008000025
:102b40000001000000000000800a000006000000f4
:102b50000200000000006700000000007e09000085
:102b60006c00000000000000000900007e00000072
:102b700000000000ea09000046000000000000001c
:102b8000860a000006000000000000008c0a000019
:102b90000600000000000000960a0000020000008d
:102ba0000200000046000000980a00000200000039
:102bb000000000005e0a0000220000000200000089
:102bc0000000000000000000000000000000000005
:102bd00000000000000000000000000000000000f5
:102be00000000000000000000000010000000000e4
:102bf000920a000004000000020000000100000032
:102c0000000000009a0a000002000000000000001e
:042c100000000000c0
:020000040000fa
:102c1400881f780000047800862aef00882aef00d5
:102c240010109000e70f500001003600ffff37003e
:102c3400086090000080fb004200dd0008004000b6
:102c44000288be000040eb008aeab7001811900029
:102c5400804078006022b800070037000180fb0044
:102c64004200dd000800400030034200a0834a0017
:102c74000602be008140e8000180fb00820f500084
:102c8400f6ff3900010078008aeab700030020004b
:102c94000400be001af707000001be00305488008b
:102ca40041548800086090000040e80000649800e7
:102cb400886090008180fb00181090000000e900fb
:102cc400808f5000020036000040eb000064980042
:102cd4000200be004f04780000000600c04b8000d4
:102ce4000000060080017800510098004000900028
:102cf4000000e00010003200e10f50001b003a0019
:102d040053009000a30090003301900082804000a3
:102d1400810f500015003d009309e8004000200099
:102d2400930f100011003a000000eb00c00198005e
:102d3400800978000000060013009000b3009000a2
:102d44005301900001004000820f500007003d0035
:102d54009309e80040002000930f100003003a009c
:102d640010002000c00198008009eb00000006005c
:102d740001017800a00090000111b8000288be0093
:102d84001002be0020019000030020000400be00d9
:102d9400dbf63700889fbe008a9fbe000005be0098
:102da4001000be00e00f5000e08f580002003a000f
:102db4000a00be00eeff07001a04be001a00be009f
:102dc4002a01900003002000cdf60700001d5400e6
:102dd40001955c006158b8001a0d40005a954800ee
:102de4001a00be002a01900003002000c4f6070068
:102df4004f05be004f04be00000006008001eb003a
:102e0400b6cab30005802000f40f20008340780088
:102e14000001eb000180fb008000d1000008a3004a
:102e24000100320086c068000201e800e80f51008a
:102e3400f8ff3a0081f17a008301e800848f5100a1
:102e4400f2ff3a00000006000002780080c1eb00a7
:102e54000001eb008180fb000580200005003700a5
:102e64006440790000c069000080fb00e0c17a0082
:102e74000201e800810f5100f9ff35000380fb00d7
:102e840000000600809fbe00821f78003400f80016
:102e940000002000a001880084e0a90012002000a6
:102ea40092548800d15480008100e800d1548800f5
:102eb400501f2000808f500002003a009a2aef0031
:102ec400a25488003400f9004f0178004f00be007e
:102ed400004006000621ef00a00f200060088800d3
:102ee4000002280080088800a7c0bf00f1c8b30012
:102ef400014060000044a000a7e0b70084e0a900fe
:0c2f040094e0a80011e1a8000000060005
:00000001FF
