:020000040000fa
:080000000002040000000000f2
:020000040000fa
:100400000fa220000eff20000e0188000000000057
:100410000c000700002e2100010020001100070041
:10042000000020000000e000020032000000020096
:100430000000000074030200000000000040da0029
:100440000000fe004440a900400220000000e0003f
:100450000300320000002000a00188004440a800f2
:100460000000060091018800800078000000eb0089
:1004700015003700e280400032a0b4009101ba00bc
:10048000e280400032a0b4009102ba00e280400055
:1004900032a0b4000002eb00472bde00f507b200eb
:1004a000602ce10004003a000059eb008301e900f0
:1004b000fdff3e00040037006128e100010032002a
:1004c0000082eb00040007001101ba000200e00006
:1004d000e8ff3a00000006003159ba008301e90044
:1004e0000c0032002159ba008301e90008003200f3
:1004f0000400e00003003a00e280400032a0b400b3
:10050000f5ff370011d9ba008301e900faff3a007c
:100510008100e800e180400032a0b4000000060045
:100520000040da000000fe0031e2a90097c0a900f7
:1005300097e0a90087c0a90087e0a9000000060095
:1005400087c0a90087e0a900e7416000310b2000c7
:100550009140780082cfb30082c0600083c07000f9
:100560008000fd00b3e0b7008000fd0001c7b300cc
:1005700081416000310b200091407800f2c8b30047
:1005800082c0600083c070008000fd00b3e0b7004f
:100590008000fd00680160004311de004611dd00af
:1005a00071092000914078000164a10082c07000b0
:1005b0008000fd0097e0b7008000fd000008b20059
:1005c0004700de004700dd007109200091407800ff
:1005d0000174a10080c070000100780097e0b700ae
:1005e0000000060032c2bf0061006000000006008b
:1005f000c211880080118800911188000100370025
:10060000b011800032c2bf000008a300fcff3a0016
:0806100087c0a90000000600ec
:020000040000fa
:0200000401f009
:04000c00f9ff0000f8
:020000040000fa
:0200000401f009
:04001000fbff0000f2
:020000040000fa
:0200000401f009
:04001c00fdff0000e4
:020000040000fa
:1000080090020000900200009002000090020000a0
:100018009002000090020000900200009002000090
:100028009002000090020000900200009002000080
:100038009002000090020000900200009002000070
:100048004a13000090020000400f000090020000d8
:100058009002000090020000900200009002000050
:100068009002000090020000900200009002000040
:100078009002000090020000900200009002000030
:100088009002000090020000900200009002000020
:100098009002000090020000f8100000e410000038
:1000a8009002000090020000900200009002000000
:1000b80090020000900200009002000090020000f0
:1000c80090020000900200009002000090020000e0
:1000d80090020000900200009002000090020000d0
:1000e80090020000900200009002000090020000c0
:1000f80090020000900200009002000090020000b0
:10010800900200009002000090020000900200009f
:10011800900200009002000090020000900200008f
:10012800900200009002000090020000900200007f
:10013800900200009002000090020000900200006f
:10014800900200009002000090020000900200005f
:10015800900200009002000090020000900200004f
:10016800900200009002000090020000900200003f
:10017800900200009002000090020000900200002f
:10018800900200009002000090020000900200001f
:10019800900200009002000090020000900200000f
:1001a80090020000900200009002000090020000ff
:1001b80090020000900200009002000090020000ef
:1001c80090020000900200009002000090020000df
:1001d80090020000900200009002000090020000cf
:1001e80090020000900200009002000090020000bf
:0801f8009002000090020000db
:020000040000fa
:10020800900200009002000090020000900200009e
:10021800900200009002000090020000900200008e
:10022800900200009002000090020000900200007e
:10023800900200009002000090020000900200006e
:100248004a13000090020000400f000090020000d6
:10025800900200009002000090020000900200004e
:10026800900200009002000090020000900200003e
:10027800900200009002000090020000900200002e
:10028800900200009002000090020000900200001e
:100298009002000090020000f8100000e410000036
:1002a80090020000900200009002000090020000fe
:1002b80090020000900200009002000090020000ee
:1002c80090020000900200009002000090020000de
:1002d80090020000900200009002000090020000ce
:1002e80090020000900200009002000090020000be
:1002f80090020000900200009002000090020000ae
:10030800900200009002000090020000900200009d
:10031800900200009002000090020000900200008d
:10032800900200009002000090020000900200007d
:10033800900200009002000090020000900200006d
:10034800900200009002000090020000900200005d
:10035800900200009002000090020000900200004d
:10036800900200009002000090020000900200003d
:10037800900200009002000090020000900200002d
:10038800900200009002000090020000900200001d
:10039800900200009002000090020000900200000d
:1003a80090020000900200009002000090020000fd
:1003b80090020000900200009002000090020000ed
:1003c80090020000900200009002000090020000dd
:1003d80090020000900200009002000090020000cd
:1003e80090020000900200009002000090020000bd
:0803f8009002000090020000d9
:020000040000fa
:100618007409000075090000760900006f090000e0
:1006280070090000710900006e0900000700000051
:100638007b0900007c0900007d0900007a090000a0
:100648007e090000780900007f0900008009000089
:08065800810900000900000007
:020000040000fa
:100660000200fa000040eb00004f7800c2c2bf0059
:10067000684060000004e00003003a001e4078007b
:100680000040e800004f7800cac2bf00644060002c
:100690000004e00003003a001e40780000c0e800bb
:1006a000004f7800c2c2bf00644060000004e00058
:1006b00003003a001e40780064404000004f78007c
:1006c000cac2bf00684060000004e00003003a00b6
:1006d0001e40780068404000004f78001e80fb00fc
:1006e0000080fa00000006000200fa001b0207006a
:1006f0006607070022020700dc010700b2010700bd
:10070000dd060700fa070700e90507005f05070097
:10071000000037000060fe00b05080000000e000e4
:10072000030032000000eb00b05088009d0107007c
:10073000a05080000000e000f6ff32000000eb0057
:10074000a05088003362a8000000eb00a0118800d0
:1007500050052000a011880020002000a011880072
:1007600033c2bf00624060000004e000fcff3a00ba
:1007700030002000a011880033c2bf00624060003a
:100780000004e000fcff3a0040002000a0118800b7
:1007900008cabf000040e80008eab70008cabf0066
:1007a000e14f500037003a000040eb0008eab70084
:1007b000abff0700e14f500008003a003362a80089
:1007c0000000eb00a011880050052000a011880057
:1007d000a3ff0700e14f5000fdff3200a0ff07001c
:1007e000ee4f500005003a00e0102000a0118800f4
:1007f0009bff0700ee4f5000fdff320098ff0700ff
:10080000ef4f500005003a0080062000a01188003c
:1008100093ff0700ef4f5000fdff32003050800083
:100820000000a200305088000000eb00000f7800ac
:1008300011003700305080000000e0000700320057
:100840001e00780080004000609e200080804000f4
:100850000080eb0080087800060037001e0078005a
:1008600080004000609e2000808040000000eb007f
:10087000800878001e0fe800f00020009e0f100096
:10088000ecff3600010507000000eb00a0508800d7
:1008900072c9bf000080fb000000d1006140600011
:1008a0000004a2006140600061406000004140001f
:1008b0002197200091407800d0cfb30000c06000a5
:1008c0000240700072e9b70092ff37000400fa009e
:1008d000000f78001e0078001000780062006000b1
:1008e0000000e0001d003a001e00780010007800b3
:1008f000610060000000e000060032001e00780089
:1009000031f02f0010886000c10c200010887000aa
:100910000e0037001e007800100078004200de0054
:10092000f043b2000040e800f043b2009e007800bf
:100930000081fb00f0032000000061004201dd00a7
:1009400030f02f0091086000910871009e0078003f
:10095000f00f2c00910860001c0037001e0078008a
:1009600010007800610060000000e00006003a001e
:100970001e007800f10f2c00108860000130230069
:10098000108870000e0037001e00780010007800fc
:100990004800de00f043b2000040e800f043b2003f
:1009a0009e0078000081fb00f00320000000610041
:1009b0004801dd00f00f2c009108600091087100e3
:1009c0009e00780030f02f00910860001e00780033
:1009d00090007800c00f200080806000800c200014
:1009e000808f500005003a001e0078001000a00023
:1009f00010002000100798000f0037001e0078003c
:100a00009000780000f02300808060000020230028
:100a1000808f500006003a009e007800e0ff2f0013
:100a200091086000100020001007980002003700b5
:100a30000000eb00100798001e0090000080fa00f4
:100a4000000006000600fa00cbc2bf000080fb00d9
:100a50004600de000004a2006140600061406000ca
:100a6000614060000080fb00610060000001400008
:100a700051508000d0ff2f00008060000200700005
:100a800050508800a0a0200090ff07000000e00068
:100a90001700320050508000610060000000e0004c
:100aa0000a0032005050800061406000c700dd0045
:100ab000ccc2bf000074a10001407000cce2b700be
:100ac000aa49a800aa09a8000900370050508000d0
:100ad00061406000c700dd00ccc2bf000074a1000f
:100ae00001407000cce2b700aa29a800aa09a90019
:100af000aac9bf00614060000004e0004900320064
:100b000078c9bf00644060000004e0000a003200c1
:100b10007bc9bf000080fb00200798007cc9bf0094
:100b20000080fb00100798007dc9bf000080fb001b
:100b3000000f7800090037006fc9bf000080fb007c
:100b40002007980070c9bf000080fb0010079800c4
:100b500071c9bf000080fb00000f780078c9bf009a
:100b6000684060000004e000100032007ac9bf0055
:100b70008080fb002e0090000180b90020079800c3
:100b80007ac9bf008080fb001e0090000180b90080
:100b9000100798007ac9bf008080fb001e00780013
:100ba0000180b900000f78000f0037006ec9bf0048
:100bb0008080fb002e0090000180b9002007980083
:100bc0006ec9bf008080fb001e0090000180b9004c
:100bd000100798006ec9bf008080fb001e007800df
:100be0000180b900000f780078c9bf006240600042
:100bf0000004e0003400320072c9bf0062406000af
:100c00000004e000300032000000eb0020079800f4
:100c10000000eb00100798000000eb00000f7800c8
:100c20002900370078c9bf00614060000004e0007f
:100c3000130032007bc9bf008080fb007ac9bf006f
:100c40000080fb000088b900200798007cc9bf0025
:100c50008080fb007ac9bf000080fb000088b900db
:100c6000100798007dc9bf008080fb007ac9bf00d3
:100c70000080fb000088b900000f780012003700e8
:100c80006fc9bf008080fb006ec9bf000080fb0001
:100c90000088b9002007980070c9bf008080fb0061
:100ca0006ec9bf000080fb000088b90010079800e3
:100cb00071c9bf008080fb006ec9bf000080fb00cf
:100cc0000088b900000f78002e0090000000e800b6
:100cd00002712200110009000280d8008000780013
:100ce00081c9bf000080fb000088b9008000780047
:100cf0002e00900001005000200798001e00900078
:100d00000000e80002712200110009000280d800f2
:100d10008000780081c9bf000080fb000088b90016
:100d2000800078001e00900001005000100798001d
:100d30001e00e80002712200110009000280d800a4
:100d40008000780081c9bf000080fb000088b900e6
:100d50001e0f10002e0090004400de0020079800b7
:100d60001e0090004400de00100798001e0078006e
:100d70004400de00000f78001e007800105088004c
:100d80002e009000205088001e0090000050880027
:100d90000080fa00000006000000fa000080fa005f
:100da000000006000000fa0074c9bf000080fb00cc
:100db000e30f5000010032000100370021ff07005f
:100dc0000080fa00000006000200fa0074c9bf00ab
:100dd0000080fb00000f78001e007800e40f500038
:100de000150032001e007800e40f500007003c00a0
:100df0001e007800e20f5000180032001e0078003c
:100e0000e30f500008003200160037001e00780083
:100e1000e50f50000e0032001e007800e60f500073
:100e2000080032000f0037006f80a80010c0b30028
:100e300076e9b7000b00370020c0b30076e9b700b1
:100e40000800370010c0b30076e9b700050037008e
:100e500010c0b30076e9b7000200370010c0b3003d
:100e600076e9b7000080fa00000006000400fa00ee
:100e700040010700000420006f0007008040eb00e5
:100e80000040eb00550207008040eb000040eb0003
:100e9000520207008040eb0000c0eb00b2010700e7
:100ea0008040eb0000c0eb00f001070016020700d5
:100eb000100798009e009000f00320000080600062
:100ec0001e0f70001e0090004200de0061006000f6
:100ed0000004e000020032001e30a00002003700d3
:100ee00070ff2f001e0f60001e0090004300de0008
:100ef000610060000004e000020032001e20a0003b
:100f000002003700b0ff2f001e0f60001e007800a7
:100f1000bd0007001e00780074e9b7000080fa00e9
:100f2000000006000000fa0070012000403a88002e
:100f3000517420009140780080cfb30000c0600061
:100f400045e7b70042c7bf000042b2000004e0001e
:100f5000fcff32000080fa00000006000000fa00ea
:100f60000000eb00200488000000eb003004880043
:100f70000000eb00600488000080fa00000006001a
:100f80000200fa000000eb00002788000000eb00e0
:100f900010278800c902a900c8e2a900cce2a80075
:100fa00071a0a8006ec0a80071c0a8006ee0a800e3
:100fb00010c0b300004f7800c2c2bf00684060009c
:100fc0000004e00003003a001e4078000040e80002
:100fd000004f7800cac2bf00644060000004e00017
:100fe00003003a001e40780000c0e800004f78007f
:100ff000c2c2bf00644060000004e00003003a0089
:101000001e40780064404000004f7800cac2bf0014
:10101000684060000004e00003003a001e407800d1
:1010200068404000004f78001e40780075e9b70026
:101030000080fa00000006000200fa00000f7800ad
:101040001e0078001aeab7000080fa0000000600cf
:101050000c00fa00000f7800214798001ccabf005e
:101060000080fb00500798005e009000e40f5000e5
:1010700007003c00de009000e38f50000b003d00b5
:101080005e009000e20f5000240032003300370071
:10109000de009000e58f5000200032005e009000de
:1010a000e60f5000100032002c0037008040eb00ab
:1010b000014f98001e00e00002003a0010c0b3008b
:1010c000004f98008e48900061c16000412c2000c4
:1010d00091407800e0cfb30000c060000240700093
:1010e000c4e2b700460037000040eb0070479800ac
:1010f0001e00e00002003a0011c0b30071479800e2
:101100007e409000c700dd00cdc2bf000074a1008a
:1011100001407000cde2b700390037008040eb009d
:10112000614798001e00e00002003a0010c0b300c2
:1011300060479800ee40900061c060004601dd000d
:10114000d12c200091407800f0cbb30000c06000ab
:1011500002407000cde2b700290037000040eb00ec
:10116000504798001e00e00002003a0011c0b30092
:1011700051479800de40900061c060004601dd00ec
:10118000d12c200091407800f0cbb30000c060006b
:1011900002407000cde2b7000040eb0040479800ed
:1011a0001e00e00002003a0011c0b3004147980061
:1011b0004e40900061416000412c20009140780039
:1011c000e0cfb30000c0600002407000c4e2b7008e
:1011d0008040eb00314798001e00e00002003a001a
:1011e00010c0b300304798003e409000c700dd00bb
:1011f000cdc2bf000074a10001407000cde2b70075
:101200000080fa00000006000400fa00004f780099
:101210001e4078001ceab700c9c2a800c002a8009e
:10122000c9e2a8001ccabf000080fb00100798009c
:101230001e009000e40f500007003c001e009000cc
:10124000e30f50000b003d001e009000e20f500025
:101250000c0032000c0037001e009000e50f50001b
:10126000080032001e009000e60f5000030032001c
:1012700005003700c002a90003003700c9e2a90039
:1012800001003700c9c2a9000080fa000000060072
:101290000400fa001007980040c2a90040c2bf0035
:1012a000614060000004e000020032004012800053
:1012b000104798000040eb00004f78000e00370008
:1012c0001e009000900078001e80fb00008040000f
:1012d000104078000080fb004012880040c2bf0030
:1012e000614060000004e000fcff3200401280001a
:1012f000104798001e4fe8001e009000204090000c
:101300009e4f5000eeff3e001e0090006040900097
:101310000004e000150032000040eb00004f7800b0
:101320000e0037001e4090000080fb004012880035
:1013300040c2bf00614060000004e000fcff3200da
:101340001e009000a00090001e80fb0080804000e6
:1013500040128000804878001e4fe8001e00900078
:10136000604090009e4f5000eeff3e000080fa006b
:10137000000006000000fa000000eb0010128800d8
:101380000000eb00201288000000eb000012880033
:101390008540a9004302a80042c2a90021242000e0
:1013a0009140780030ceb30000c06000c040b30070
:1013b00042e2b70042c2bf003040b30042e2b70091
:1013c0004342a90042a2a80045e2a90041a2a90007
:1013d00040c2a90041e2a8008040eb000000eb0001
:1013e0001bff0700c9c2a900c002a900c9e2a900e9
:1013f0009540a9000080fa00000006001000fa00e5
:1014000070079800a1a120009140780010002000f2
:101410000fff07007e00900050009000e10f500089
:101420000d003a001acabf00804078000104a000f5
:10143000014f78007e009000300090005007980027
:101440007e00900000489000404f980020c0b300fc
:10145000004f9800150037000040eb00404f980007
:101460001acabf00004f78007e0090002000900054
:10147000e10f50000d003a0030c0b300004f98005b
:101480007e00900010009000804078000e00e80080
:10149000214098007e009000100090004800de007f
:1014a000804078000e00e800314098000e00e8000f
:1014b0001e4878007e009000904078000e00e80002
:1014c000114098000e00e8003007980066004700c1
:1014d0006fff0700a1a12000914078000000eb0001
:1014e000dbfe07000080fa00000006001000fa0092
:1014f000404f9800710798004e489000004f7800c8
:101500000000eb00500798007e0090001007980044
:1015100010002000200798000e007800b7ff070099
:101520000080fa00000006001200fa00404f980008
:1015300071079800025798004e489000004f7800bd
:1015400010002000500798007e009000300798009f
:101550000e509000004f98000e007800a7ff070083
:101560000080fa00000006000200fa00004f780038
:10157000114798009e80fb001e4090000080fb00f9
:101580004800dd0000804000800078000040eb0053
:10159000d6ff07000080fa00000006000200fa00f3
:1015a000004f7800114798009e80fb001e4090007d
:1015b0000080fb004800dd000080400080007800d3
:1015c00020c0b300c9ff07000080fa000000060039
:1015d0000200fa00004f7800114798009e80fb003f
:1015e0001e4090000080fb004800dd0000804000ad
:1015f0008000780030c0b300bcff07000080fa0014
:10160000000006000200fa00004f78001147980021
:101610009e80fb001e4090000080fb004800dd0023
:10162000008040008000780040c0b300afff07009a
:101630000080fa00000006000200fa00004f780067
:10164000114798009e80fb001e4090000080fb0028
:101650004800dd00008040008000780050c0b300ea
:10166000a2ff07000080fa00000006000200fa0056
:10167000004f7800114798009e80fb001e409000ac
:101680000080fb004800dd00008040008000780002
:1016900060c0b30095ff07000080fa00000006005c
:1016a0000200fa0022c0b3008e00780070c0b300c0
:1016b0009dff07001e4090000080fb00c800dd0079
:1016c0001e4078000080fb00008040000080fa008f
:1016d000000006000200fa0022c0b3008e0078006d
:1016e00080c0b30090ff07001e4090000080fb0008
:1016f000c800dd001e4078000080fb000080400034
:101700000080fa00000006000200fa0012c0b300d8
:101710008e00780090c0b30083ff07001e40900049
:101720000080fb00c800dd001e4078000080fb0048
:10173000008040000080fa00000006000200fa006d
:1017400022c0b3008e007800a0c0b30076ff07006f
:101750001e4090000080fb00c800dd001e407800a5
:101760000080fb00008040000080fa0000000600be
:101770000600fa001007980021079800efff070005
:10178000000f78002e009000e10f500007003a0093
:101790001e0090000000e90080007800100020008a
:1017a0000100dd001e0f7000070037001e009000d2
:1017b0000000e90080007800100020000100dd003a
:1017c0000080ea001e0f60009e007800a0c0b300f9
:1017d00046ff07000080fa00000006000200fa0041
:1017e000004f7800114798009e80fb001e4090003b
:1017f0000080fb004800dd00008040008000780091
:10180000a0c0b30039ff07000080fa000000060006
:101810000000fa000040eb00dee9b7000000eb003a
:10182000104f8800104f8000004f88000080fa00a1
:10183000000006000200fa00881f7800dec9bf0021
:101840000080fb008000e900609b200000804000d9
:1018500010447800dec9bf000040e90080407800f5
:10186000609b200035030700804f540003003200c6
:101870000000eb00000f780002003700100020008d
:10188000000f78001e0078004f0478000080fa00f6
:10189000000006000000fa000080fa0000000600c8
:1018a0000800fa00881f7800b6c9bf00f043b200f4
:1018b00040479800b7c9bf0030479800b8c9bf007b
:1018c000204798000040eb00004f78000040eb00fc
:1018d00010479800150037001e4090000080fb0064
:1018e00080007800709b2000008140003e40900006
:1018f0008080fb001e4090000080fb008080400044
:101900004e4090000080fb00130020008a02070078
:101910000000e00002003a0010c0b300004f780061
:101920001e4090000040e800104798009e40900044
:101930002e40900080cf5000e7ff39001e80fb0052
:10194000300798003e0090000000e00004003200e4
:101950003e009000e10f50001600320016003700e4
:101960002e4090000040e800dee9b700dec9bf006d
:101970000084fb00e19d200091407800609b2000e6
:10198000ee02070080407800609b200000004400c9
:1019900001487800dec9bf000040e800dee9b7007a
:1019a000dec9bf008080fb00609b2000f8010700bb
:1019b00001003700b7ff07004f0478000080fa00ed
:1019c000000006000800fa00881f7800b6c9bf00b2
:1019d000f043b20040479800b7c9bf0030479800b5
:1019e000b8c9bf00204798000040eb00004f7800c6
:1019f0000040eb0010479800150037001e40900093
:101a00000080fb0080007800909b20000081400057
:101a10003e4090008080fb001e4090000080fb0054
:101a2000808040004e4090000080fb008001eb0071
:101a3000410207000000e00002003a0010c0b300bd
:101a4000004f78001e4090000040e80010479800ca
:101a50009e4090002e40900080cf5000e7ff39005c
:101a60001e80fb00300798003e0090000000e00060
:101a7000040032003e009000e10f500017003200d9
:101a80001700370010c0b300dee9b7004e409000e9
:101a9000b6e9b700dec9bf000084fb00e19d20006d
:101aa00091407800609b2000a402070080407800ed
:101ab000609b20000000440001487800dec9bf00a0
:101ac0000040e800dee9b700dec9bf008080fb000f
:101ad000609b2000ae010700010037006dff07008a
:101ae0004f0478000080fa00000006000400fa00ad
:101af00035010700000f7800104f80000000e00063
:101b000007003a001e007800eb0107000000e0002b
:101b100003003a00350107003dff0700370037009a
:101b200010002000104f88001e0078000000fb000d
:101b3000000f7800e19d20009140780070c2b30052
:101b400080cf50000a003e00e29d20001241780044
:101b50008281fb001e00780080407800609b20009e
:101b600000804100014878000240e800dee9b7004b
:101b7000dec9bf00e34f500020003600b6c9bf00e9
:101b80000080fb004600de000080fb00100798008c
:101b90001e0090000000e000040032001e009000d3
:101ba000e30f500008003200140037000f01070057
:101bb00020ff07000000e0000100320038ff0700ae
:101bc00013ff07000d003700dec9bf008080fb0057
:101bd000b8c9bf000080fb0064004000808f500047
:101be00006003a000101070012ff07000000e000b4
:101bf0000100320073ff070005ff07000080fa00b4
:101c0000000006000200fa0074c9bf000080fb005b
:101c1000000f78001e007800e50f500007003c0020
:101c20001e007800e30f500008003d001e00780001
:101c3000e20f50000f003200120037001e00780043
:101c4000e60f5000060032000e003700cde2a9007a
:101c5000cde2a80000000000cde2a9000900370095
:101c6000ccc2a900ccc2a80000000000ccc2a900d0
:101c700004003700cde2a900cde2a800000000007a
:101c8000cde2a9000080fa00000006000800fa007a
:101c900040c2a9000000eb001007980040c2bf003e
:101ca000614060000004e00002003a004012800041
:101cb000300798000000eb00200798006000370014
:101cc0001e0090006300b900800078002e00900094
:101cd000808f500014003a00ae0090001e0090006b
:101ce0000080400080004000609e20000080400096
:101cf000100078004401dd00ae0090001e0090004e
:101d0000008040000000e80080004000609e20004d
:101d100000804000100078004800de006f00600086
:101d2000000f7100370037001e0090006300b900fb
:101d30008000e8002e009000808f500015003a00cf
:101d4000ae0090001e009000008040008000400027
:101d5000609e200000804000100078004801dd00f7
:101d6000ae0090001e009000008040000000e800df
:101d700080004000609e200000804000100078003d
:101d8000c400de00f00f200000806000000f710032
:101d90001c0037001e0090006300b9008080e8003e
:101da0002e009000808f500016003a00ae00900088
:101db0001e0090000080400080004000609e2000d7
:101dc00000804000100078004c01dd00ae00900063
:101dd0001e009000008040000000e80080004000ed
:101de000609e20000080400090007800f0ff2000fe
:101df00000806000000f71001e0090000000e800ed
:101e0000100798001e0078004012880040c2bf00f2
:101e1000624060000004e000fcff3a0040c2bf00e6
:101e20000042b2000004e0000200320040128000d4
:101e3000300798002e0090000000e800200798006e
:101e40002e009000eb0f50009dff34000000370083
:101e500041c2bf00674060000004e000fcff3a00a0
:101e600040c2bf0001c8b300014060000004e000b0
:101e7000f7ff320063ff07000080fa000000060051
:101e8000801f78003400f80000002000a0018800c6
:101e90000200fa0040128000000f78008540a9007f
:101ea0000080fa003400f9004f007800004006007e
:101eb0000400fa000000eb00101288000000eb00a4
:101ec000201288000000eb00001288004402a800e5
:101ed0008540a9004302a80042c2a9002124200095
:101ee0009140780030ceb30000c06000c040b30025
:101ef00042e2b70042c2bf003040b30042e2b70046
:101f00004342a80042a2a80045e2a90041a2a900bc
:101f100040c2a90041e2a8000124200091407800bd
:101f200030ceb30000c060004041b30040e2b700d3
:101f30009540a80074c9bf000080fb0010079800fe
:101f40001e009000e50f500007003c001e009000ae
:101f5000e30f500008003d001e009000e20f50000b
:101f600009003200090037001e009000e60f500003
:101f70000300320005003700c9e2a9000300370062
:101f8000c8c2a90001003700c9e2a9000000eb00a7
:101f9000000f7800070037001e0078008000400026
:101fa000609e2000808040000080eb008008780068
:101fb0001e0fe800f00020009e0f1000f6ff340016
:101fc0000080fa00000006000000fa0002c9bf000d
:101fd0008000fb003090200000804000104078001e
:101fe0000000fb000080fa00000006000000fa007c
:101ff000cce2a90032a2a8001e0007000080fa006f
:10200000000006000000fa00cce2a80032a2a900fd
:102010000080fa00000006000200fa00004f78007d
:102020001e00fb00a01188000080fa0000000600de
:102030000200fa00004f78001e00fb000110200093
:1020400001007000a01188000080fa000000060066
:102050000200fa0002003700b0118000000f780083
:1020600060f907000004e000fbff3a000080fa007e
:10207000000006000000fa00100020000048880060
:1020800030e2a80030a2a8000080fa00000006009c
:102090000000fa0030c2bf000042b2000004e000bd
:1020a00012003a000000eb0000488800c1118000d7
:1020b000c0062000808f500008003e00c111800043
:1020c00010062000808f500004003600c0118000f0
:1020d000c0508800cbff070004003700c0508000cc
:1020e000c0118800c1ff0700d9ff07000080fa0077
:1020f000000006000000fa00b19620009140780030
:102100006ac9bf0080cf50001d003100404b8000e5
:1021100010407800c0ff07006bc9bf000040e80016
:102120006be9b700b1962000914078006ac9bf0002
:1021300080cf500006003100404b800010407800f6
:10214000b5ff07006bc9bf000040e8006be9b700ae
:10215000b1962000914078006ac9bf0080cf50003e
:1021600009003100404b800010407800aaff0700b2
:102170006bc9bf000040e8006be9b7000200370000
:102180000000eb00604b88000080fa0000000600b1
:102190000400fa00000f780021479800100020008a
:1021a000604b88001e007800404b88000040eb0028
:1021b0006be9b7002e4090006ae9b700cdff070039
:1021c0000080fa00000006003400f800881f780044
:1021d00008002000a80188004f0478000000fa00e1
:1021e00087e0a9000080fa003400f90000400600f2
:1021f0003600f800809fbe00829fbe00849fbe0014
:10220000869fbe003400f80000002000a001880076
:102210000000fa0087c0a90032c2bf00644060001d
:102220000004e000010032003242a90032c2bf00c7
:10223000624060000004e00004003a0032c2bf00c7
:10224000684060000004e000020032003222a90071
:102250003262a9007eff07000080fa003400f90016
:102260004f03be004f02be004f01be004f00be0034
:102270003600f900004006000600fa00aaf8070040
:10228000b0fb2f00aef80700700620002007980072
:10229000e0402c0010079800f0772200000f780033
:1022a0002e0190009e0078001e009000d0f80700dc
:1022b0000080fa00000006000600fa00204798009f
:1022c0002e4090000004e00003003a0010002000bf
:1022d00020079800150037002e409000f2c3b3008d
:1022e0008240600075c9bf0000cf50001e04e000ae
:1022f00003003d000000eb00200798000b003700b2
:102300001e00fb0061972000914078008180fb0057
:10231000810f500003003d001200200022079800aa
:10232000020037000000eb00200798002e0090000c
:102330000080fa00000006000c00fa001007980068
:102340002107980032079800430798000000eb002f
:10235000000f7800a0312800104078008080fb003a
:102360002e009000808f5000190034004e00900025
:102370000000e000090032002e00900080004000c4
:10238000c0302800008040001000780090407800a5
:102390003e00900001487800080037002e009000b1
:1023a00080004000c030280000804000900078008d
:1023b0003e00900010407800804878001000200017
:1023c000000f78001e007800500798002c0037009e
:1023d000a0312800104078008080fb002e00900083
:1023e000010050002007980074c9bf000080fb0066
:1023f000e30f5000010032001f003700e0322800d8
:10240000104078008080fb002e009000808f5000ec
:1024100003003d001e0078005007980018003700a8
:102420004e0090000000e000090032002e009000f5
:1024300080004000c031280000804000100078007b
:10244000904078003e009000014878000800370076
:102450002e00900080004000c03128000080400025
:10246000900078003e00900010407800804878008e
:1024700010002000000f78001e0078005007980020
:102480005e0090000080fa00000006000800fa00dc
:1024900000c0eb00404798000000eb0030079800b8
:1024a000200037003e009000404798000000eb00fd
:1024b00010079800100037004e4090000080fb008d
:1024c000610f60004e4090000080fb000000d100d2
:1024d000404798001e00e000040032004e4090008b
:1024e000b1cab30001406800404798001e00900048
:1024f0000000e800100798001e009000e70f500051
:10250000edff3400be0090000080200000804000fd
:10251000ce409000014878003e0090000000e800a6
:1025200030079800be009000e00f2000808f500020
:10253000dcff34000080fa00000006000800fa000a
:10254000200798006147980000c0eb0030479800d2
:102550000000eb00000f7800110037001e0078002b
:10256000800078002e00900000804000104078002d
:1025700020479800be4090002e40900000c06800a8
:10258000304798003e4090008080fb000080200093
:102590000080400090407800314798001e0fe8000e
:1025a0006e4090000080fb009e0f5000ebff3c004f
:1025b0003e4090000080fb000080fa000000060012
:020000040000fa
:1025c000b409000030000000000000000008000016
:1025d0000001000000000000000900006e00000083
:1025e00000000000180a00000200000002000000c5
:1025f000670000006e0900004600000000000000b7
:10260000060a000008000000000000001a0a00008e
:102610000200000002000000460000001c0a00004a
:102620000200000000000000e40900002200000099
:102630000200000001000000000000000000000097
:10264000000000000000000000000000000000008a
:10265000000000000000000000000000000000007a
:10266000000000000e0a000006000000000000004c
:10267000140a000004000000020000000000010035
:10268000000000001e0a0000020000000000000020
:042690000000000046
:020000040000fa
:10269400809fbe003400f80000002000a0018800e4
:1026a4000000fa008500a90010002000b050880046
:1026b400f05080000000e800f0508800f1508000e5
:1026c400501f2000808f500004003a000000eb00ef
:1026d400f050880010002000a05088000080fa000c
:1026e4003400f9004f00be00004006000000fa006c
:1026f4000000eb0050088800a00f2000700888003c
:102704000002280090088800810a20009140780087
:1027140080cfb30000c060000004a000a8e0b700b0
:102724008500a9009500a80013e1a8000080fa0024
:04273400000006009b
:00000001FF
