:020000040000fa
:080000000002040000000000f2
:020000040000fa
:100400000f8220000eff20000e0188000000000077
:100410000c000700a0ca2000010020001100070006
:10042000000020000000e000020032000000020096
:10043000000000005a090200000000000040da003d
:100440000000fe004440a900000020000000e00081
:100450000300320000002000a00188004440a800f2
:100460000000060091018800800078000000eb0089
:1004700015003700e280400032a0b4009101ba00bc
:10048000e280400032a0b4009102ba00e280400055
:1004900032a0b4000002eb00472bde00f507b200eb
:1004a000602ce10004003a000059eb008301e900f0
:1004b000fdff3e00040037006128e100010032002a
:1004c0000082eb00040007001101ba000200e00006
:1004d000e8ff3a00000006003159ba008301e90044
:1004e0000c0032002159ba008301e90008003200f3
:1004f0000400e00003003a00e280400032a0b400b3
:10050000f5ff370011d9ba008301e900faff3a007c
:100510008100e800e180400032a0b4000000060045
:100520000040da000000fe0003f0a200889fbe0039
:100530008a9fbe008c1f7800a3010700aa01330028
:100540006450e1004f0032006420e10052003200ac
:1005500003826c0007003b000905d0000306d000b1
:10056000820f54000c065d000200390002003200c8
:1005700089017800030678008582550004003d005b
:100580000003fd008103fd008502ea008b85420027
:10059000840f720002003b0060001000e080180031
:1005a0006011b8000005eb007a28e1000a0039006c
:1005b00006007800c75ddd00f707b2008780750090
:1005c0002d003700828171000a017800610560000a
:1005d0008180d1000080d3008502e900f9ff3b0053
:1005e000060440008784480002003b0060041400b9
:1005f000e0841c000988a300070032008a81710092
:1006000082817100610164008904d1000884d300f3
:100610008b05e800170037000978a30013003a00a3
:100620000b00e000130034008b05e90008044400cf
:1006300089844c000a4474000978a3000d003a0034
:100640000b00e000070034008b05e90008044400bb
:1006500089844c0001003a000b0020000978a300b7
:10066000f7ff32000001eb000200370082817100c9
:100670000a017800190107000cf0a70001f0a000a2
:10068000620137006420e10002003a00838f6c00b1
:10069000620133000801be000200be005b013700aa
:1006a000889fbe008a9fbe008c1f7800460107000d
:1006b0004d01330003866c006450e1002e003200cf
:1006c0006420e100330032006150e1002f0032006d
:1006d0006120e1003100320085855500eb07b00054
:1006e0000900200008042000050037000804440029
:1006f00089844c000a0031000603430087834b00c5
:100700000001530081815b00f8ff33000203be004b
:100710000800a0000804440089844c00f6ff39005a
:10072000c639dd0083017300010032001300200090
:100730008904d1000884d3000998a3000500320081
:100740000800a7000300a0008904d1000884d3009a
:100750008b05e8008904d1000884d3000001eb0078
:100760000281d200dd00070001f0a1000cf0a7001b
:1007700001f0a000250137006420e10027013200cc
:100780000801be000200be00f7ff37006120e10053
:10079000220132006000b800f3ff370000002000a3
:1007a00001f82700f0ff3700889fbe008a9fbe0037
:1007b0008c9fbe000004be00ee0007000800be00d3
:1007c0006420e10048003e005500320072212700fd
:1007d000132b24005800070047003c000800be000f
:1007e000c2ec2800e32c2c00510007004700350024
:1007f0000800be0001f0a100020020000338230021
:100800004b000700430035000800be00b2a32a00d9
:1008100083fb2300260107000200200003f02300d1
:1008200001f0a70003f0a00040ff0700440007000c
:100830000005be007e00070001f0a2000006be0019
:100840000200280013f32300190107000801be006d
:1008500036ff0700809fbe000c00be003208280053
:10086000e3952b00120107004f01be002fff070088
:100870000006be000001be000d010700809fbe0003
:100880004241250083b8230009010700020020002f
:1008900003e8230025ff07000c01be000401070048
:1008a0000006be004f00be00f2f92b00c3d42300a7
:1008b000ff0007000200200003f023001bff0700d9
:1008c0000c01be0018ff07000001be000c00be00b6
:1008d00073ff07000200200003f0230013ff07004e
:1008e00061014500d00007004f06be004f05be0065
:1008f0004f04be000000060001f8270000002000a1
:1009000022022000f2408800f7ff37006000b800a4
:10091000fbff370001f8230000002000f2ff370042
:1009200009f8a300f0ff32006000b800eeff3700c6
:100930001400200012013700f4ff2f0010013700cf
:100940000001be008b0007000470a70003f0a100a7
:100950006509b100160032000d0035006828e1007d
:1009600006003500f0ff2f00f1ff27000300e00034
:1009700013003b00010028000000050000004000bb
:10098000818048008502e900fcff3a00080037003a
:10099000f88f420002003c008000eb0000000500e0
:1009a0008100d1000080d3008502e800fcff3a00fe
:1009b0000300e00002003b0060001000e08018002f
:1009c000000006000001be006a0007000470a700d6
:1009d00003f0a10003f8a30013003a006509b10079
:1009e00010003200090035006928e10002003500de
:1009f0000100280000000500000040008180480040
:100a00008502e900fcff3a0000000600f88f420072
:100a1000050035008100d1000080d3008502e80088
:100a2000fcff3a00000006008000eb00000005001b
:100a3000889fbe008a9fbe00010578000100e0008b
:100a40000400350008003c000000e00020003200f7
:100a50000500370060001000e080180002003b0035
:100a600001f02c001a0037000004be006011b8002d
:100a70006b0920000982cf00020039000882cf00f4
:100a80000441b000694252000e00320008003b00f1
:100a900082817100610164008904d1000884d3005f
:100aa0008b05e8000442e800f9ff3a000500370032
:100ab0000804440089844c008b05e9000442e900e5
:100ac000fbff3a00050007000af0a70001f0a000b4
:100ad0004f05be004f04be0000000600810020004c
:100ae000618055000b003d000b00200061fe2f00cf
:100af0000100e1001d003400828171006101640089
:100b00008904d1000884d3000000e800faff3a000d
:100b100071002000610064000300700002006000aa
:100b20000900320061044400e0844c000988a500fb
:100b3000050032008b05e8006808e10002003a0079
:100b40008904d1000884d300f20f20000258e1008c
:100b500005003d00c75ddd00f907b2008980750022
:100b600008007800000006000bf827008b007800d2
:100b700000000500c70ade00f107b200f50fb20061
:100b800008003200e1cf4200020032000170a000f4
:100b900024000500810f70000100320004080500e8
:100ba00044000500810f700002003a0014000500a7
:100bb0008502e9000000400081c04800fcff3b00c6
:100bc0000170a000240005000004be00e9ff07003a
:100bd0000003be000405be000200be00e5ff0700e2
:100be000844f7500000006000200be006450e10062
:100bf000050036006420e100020036000968a30009
:100c000001003a000800be000160a0004f06780015
:100c10004f05be004f04be0000000600f0ff2f008d
:100c2000f1ff2700f9ff37000003be00d1ff0700e6
:100c30006220e100020032000600be000000060053
:100c400085024100e30f20000328e10005003c007d
:100c5000a3fe2f000328e10007003d00050020004f
:100c600001003700f50f200020022000f04088002e
:100c70006000b80008003700130020008381520094
:100c800005003d008100d1000080d3008301e80011
:100c9000fcff3a0005002000c72add00f107b20082
:100ca0008580700007f0a70001f0a000000006009a
:100cb000889fbe008a9fbe008c1f7800c2ff07007d
:100cc000c9ff330003866c006450e1002400320049
:100cd0006420e100270032006150e1002200320070
:100ce0006120e100210032008b854200eb07b1005a
:100cf0000134b800003ab8000804420089844a0070
:100d0000013ab8000030b8008880400009014a006c
:100d100004003300000040008180480002014900c7
:100d20008b05e900c909dd00830170000100320074
:100d300013002000c814de004814dd004709de005f
:100d40001200b200c808de000884700063ff0700cc
:100d500001f0a1000cf0a70001f0a000abff3700ec
:100d60006120e100adff32000801be000200be00bc
:100d7000f7ff37006150e100fcff3a00a7ff3700a2
:100d8000889fbe008a9fbe00841f78008eff0700e8
:100d90004f00780011003300f0ff2f00838f6c00ac
:100da00006003b00040565000a00a70008003700a4
:100db00009f0a6001000200008003700820f540040
:100dc000838f5c00030039001000200001003e000a
:100dd0000000200009f0a7000000ea004f05be0057
:0c0de0004f04be000000e0000000060010
:020000040000fa
:0200000401f009
:04000c00f9ff0000f8
:020000040000fa
:0200000401f009
:04001000fbff0000f2
:020000040000fa
:0200000401f009
:04001c00fdff0000e4
:020000040000fa
:1000080090020000900200009002000090020000a0
:100018009002000090020000900200009002000090
:100028009002000090020000900200009002000080
:100038009002000090020000900200009002000070
:10004800460c0000900200009002000090020000a0
:100058009002000090020000900200009002000050
:100068009002000090020000900200009002000040
:100078009002000090020000900200009002000030
:100088009002000090020000900200009002000020
:100098009002000090020000900200009002000010
:1000a8009002000090020000900200009002000000
:1000b80090020000900200009002000090020000f0
:1000c80090020000900200009002000090020000e0
:1000d80090020000900200009002000090020000d0
:1000e80090020000900200009002000090020000c0
:1000f80090020000900200009002000090020000b0
:10010800900200009002000090020000900200009f
:10011800900200009002000090020000900200008f
:10012800900200009002000090020000900200007f
:10013800900200009002000090020000900200006f
:10014800900200009002000090020000900200005f
:10015800900200009002000090020000900200004f
:10016800900200009002000090020000900200003f
:10017800900200009002000090020000900200002f
:10018800900200009002000090020000900200001f
:10019800900200009002000090020000900200000f
:1001a80090020000900200009002000090020000ff
:1001b80090020000900200009002000090020000ef
:1001c80090020000900200009002000090020000df
:1001d80090020000900200009002000090020000cf
:1001e80090020000900200009002000090020000bf
:0801f8009002000090020000db
:020000040000fa
:10020800900200009002000090020000900200009e
:10021800900200009002000090020000900200008e
:10022800900200009002000090020000900200007e
:10023800900200009002000090020000900200006e
:10024800460c00009002000090020000900200009e
:10025800900200009002000090020000900200004e
:10026800900200009002000090020000900200003e
:10027800900200009002000090020000900200002e
:10028800900200009002000090020000900200001e
:10029800900200009002000090020000900200000e
:1002a80090020000900200009002000090020000fe
:1002b80090020000900200009002000090020000ee
:1002c80090020000900200009002000090020000de
:1002d80090020000900200009002000090020000ce
:1002e80090020000900200009002000090020000be
:1002f80090020000900200009002000090020000ae
:10030800900200009002000090020000900200009d
:10031800900200009002000090020000900200008d
:10032800900200009002000090020000900200007d
:10033800900200009002000090020000900200006d
:10034800900200009002000090020000900200005d
:10035800900200009002000090020000900200004d
:10036800900200009002000090020000900200003d
:10037800900200009002000090020000900200002d
:10038800900200009002000090020000900200001d
:10039800900200009002000090020000900200000d
:1003a80090020000900200009002000090020000fd
:1003b80090020000900200009002000090020000ed
:1003c80090020000900200009002000090020000dd
:1003d80090020000900200009002000090020000cd
:1003e80090020000900200009002000090020000bd
:0803f8009002000090020000d9
:020000040000fa
:100dec000400fa00000f78001e0078001000780054
:100dfc00610060000000e000770032001e00780007
:100e0c0010007800620060000000e00008003a006a
:100e1c001e00780010007800640060000000e00004
:100e2c0003003a001e0078001030a0000d003700bf
:100e3c001e00780010007800620060000000e000e6
:100e4c0008003a001e007800100078006400600072
:100e5c000000e000030032009e00780040012000fa
:100e6c00900098001e0078001010a0001e00780062
:100e7c0010007800680060000000e00012003200f2
:100e8c001e00780010007800640060000000e00094
:100e9c000d003a001e007800100090008000e80061
:100eac001e007800110098001e0078009000900041
:100ebc00f00f2000808f500003003a009e00780055
:100ecc0070ff2f00910860001e0078001000780061
:100edc00640060000000e000680032009e007800b2
:100eec0070ff2f00910860001e0078001000780041
:100efc004500de00614060000080fb001007980098
:100f0c001e0090000000e0001c0032001e0090004b
:100f1c00e10f500001003200580037001e0078002d
:100f2c00100090008000e8001e007800110098006e
:100f3c001e00780090009000e00f2000808f500081
:100f4c004e0036001e007800100078004500de00d0
:100f5c00614060000004a200614060009e007800c7
:100f6c000080fb00610060004501dd00f0fd2f00fa
:100f7c009108600091087100400037001e00780055
:100f8c00100090008000e9001e007800110098000d
:100f9c001e00780010009000f30f500037003e0048
:100fac001e007800100078004500de0061406000f3
:100fbc000004a200614060009e0078000080fb00ed
:100fcc00610060004501dd00f0fd2f00910860001c
:100fdc0091087100290037001e007800100078007d
:100fec00610060000000e00024003a001e00780060
:100ffc0010007800620060000000e0000500320084
:10100c001e0078001040a0009e007800d0ff2f003a
:10101c00910860001e0078001000780070006000dd
:10102c000000e000150032009e0078000000eb008c
:10103c00900098001e007800100090008000e900dd
:10104c001e007800110098001e007800100090001f
:10105c00e10f400009003a009e007800f0fe2f00de
:10106c00910860009e0078000000eb009000980052
:10107c009e0078000000eb00800878001e007800cd
:10108c00100090000080fa00000006000600fa0034
:10109c0000812000000f7800cbc2bf008040eb0025
:1010ac00414798000004e0000200350012c0b30074
:1010bc00424798009e0078004e4190000280fb0051
:1010cc00610060004201dd00b0ff2f00910860005c
:1010dc00910871001e007800e80007000000e00095
:1010ec00280032001e007800100078006340600079
:1010fc000080fb00100798001e009000e10f5000cc
:10110c000a0032009e009000e28f50001b0032005b
:10111c001e0190000200e0000100320019003700af
:10112c000048a9000008a900160037000040800004
:10113c00680060000000e000020032000068a900b6
:10114c0010003700004080004200de00614060006b
:10115c000004a200614060000080fb0061006000a0
:10116c004201dd0001408000b0ff2f0000806000d4
:10117c000200700000408800020037000008a80040
:10118c0000a8a800e0802000000f7800cbc2bf00b0
:10119c000080fb004600de00614060009e0078008d
:1011ac000080fb00610060004201dd00b0ff2f00f9
:1011bc0091086000910871001e007800af000700d4
:1011cc000080fa00000006000000fa0000408000d9
:1011dc00610060000000e000090032002040800047
:1011ec000000e8002040880021408000900720008b
:1011fc00808f500004003a000008a900020037005c
:10120c000000eb002040880030408000610060004e
:10121c000000e00008003200504080000000e800b0
:10122c005040880050408000f50f500004003a00f8
:10123c000608a900020037000000eb0050408800af
:10124c000080fa00000006000000fa003040800028
:10125c00610060000000e0000f003a0000408000d8
:10126c00610060000000e0000b003a00904080003c
:10127c00ea0f50000a003200904080000000e800a5
:10128c009040880090408000ea0f500004003a0023
:10129c00cda2a900020037000000eb0090408800ae
:1012ac000080fa00000006000000fa003e00070073
:1012bc002f00070092010700110107000000eb004e
:1012cc00002788000000eb0010278800c902a90045
:1012dc00c8e2a900cce2a800c9a2a900c022a900ba
:1012ec00cda2a800000037000060fe00b0408000d6
:1012fc000000e000110032000000eb00b04088005c
:10130c00604080000000e800604088006040800081
:10131c00ea0f500009003a000000eb006040880022
:10132c005aff070060802000adfe07003c0107005b
:10133c0000802000aafe070045010700a0408000a5
:10134c000000e000030032000000eb00a040880029
:10135c00bdff0700c04080000000e000e2ff32004b
:10136c000000eb00c040880097ff0700deff37004d
:10137c000000fa0070012000403a880051742000ef
:10138c009140780080cfb30000c0600045e7b70003
:10139c0042c7bf000042b2000004e000fcff320074
:1013ac000080fa00000006000000fa000000eb00cc
:1013bc00200488000000eb00300488000000eb00e3
:1013cc00600488000080fa00000006000200fa00a9
:1013dc000000eb00002788000000eb0010278800bd
:1013ec00c902a900c8e2a900cce2a80071a0a8001b
:1013fc006ec0a80071c0a8006ee0a80010c0b300b9
:10140c00004f7800c2c2bf00684060000004e000da
:10141c0003003a001e4078000040e800004f7800be
:10142c00cac2bf00644060000004e00003003a0040
:10143c001e40780000c0e800004f7800c2c2bf0018
:10144c00644060000004e00003003a001e40780095
:10145c0064404000004f7800cac2bf006840600082
:10146c000004e00003003a001e4078006840400091
:10147c00004f78000080fa00000006000800fa0017
:10148c00000f78001e0078001000780068006000e3
:10149c000000e00020003a001e0078001030a00090
:1014ac001e007800100078004200de0061406000f1
:1014bc000080fb00300798003e0090000000e00028
:1014cc000a0032003e009000e10f50000100320093
:1014dc00110037001e007800f1802f00108860008a
:1014ec0001282000108870000b0037001e007800c7
:1014fc00100078004b00de000040e8007f406000e8
:10150c009e0078000080fb004b01dd00f07f200086
:10151c0091086000910871001e007800100078009e
:10152c004200de00614060000080fb002007980054
:10153c002e0090000000e0002c0032002e009000e5
:10154c00e10f500001003200680037001e007800e7
:10155c00100078004400de000074a1008080fb00c5
:10156c0080022000808f50001c003c001e00780080
:10157c00100078004400de000074a1000040e80078
:10158c000074a1009e0078000081fb00f007200091
:10159c00000061004401dd00f0802f009108600024
:1015ac00910871001e007800100078004400de00e5
:1015bc00804078000174a10090c2b30080cf50002d
:1015cc0006003a009e007800c0ff2f0091086000d2
:1015dc001000200010079800460037009e0078008d
:1015ec00f07f200091086000400037001e0078005a
:1015fc00100078004400de000074a1008080fb0025
:10160c0070022000808f500013003c001e007800f8
:10161c00100078004400de000074a1000080fb0084
:10162c00e20f50000c0034001e007800100078000f
:10163c0063006000e10f5000070032001e007800cc
:10164c00c1ff2f00108860001000a00010002000c7
:10165c0010079800270037001e0078001000780053
:10166c004b00de000080fb00e50f50001c003c002e
:10167c001e007800100078004b00de000040e800ef
:10168c007f4060009e0078000080fb004b01dd0075
:10169c00f07f200091086000910871001e00780016
:1016ac00100078004b00de00e64f50000c003a00b2
:1016bc001e0078001000780063006000e20f5000fc
:1016cc00070032001e007800c1ff2f001088600058
:1016dc001010a00010002000100798000500370023
:1016ec009e007800f0802f00910860000000eb0055
:1016fc00100798001e0090000080fa000000060001
:10170c000000fa000000eb00d00c88000000eb0099
:10171c00e00c88000000eb00000d8800f0ff2000ba
:10172c00f00c880060c02100d00c8800f001200073
:10173c00e00c88000000eb00200d88000000eb009e
:10174c00300d88000000eb00500d8800f0ff2000e9
:10175c00400d880060c02100200d8800f0012000a1
:10176c00300d88000080fa00000006000a00fa0024
:10177c002007980020ae27004106240007fc070034
:10178c000200200003f8230064fb07000001be00e8
:10179c0000002000f1372400befb0700008fbe00c4
:1017ac002e009000cf80de009efc070030079800d2
:1017bc00410798002e0090000000e00007003d005b
:1017cc0002002000037824003e009000ce00900020
:1017dc0053fb070030079800410798003e0090002b
:1017ec00ce0090002204260053c623002dfd0700d6
:1017fc00eafb07000200200003f8230047fb070068
:10180c000001be001e00be0026fd0700008fbe00ba
:10181c001e00be0068fc07000080fa0000000600f5
:10182c000400fa00100798001e009000cfff07007c
:10183c00000f78001e0078004400dd00000f7800d7
:10184c001e007800000d88000080fa0000000600e1
:10185c000400fa00100798001e009000c3ff070058
:10186c00000f78001e0078004400dd00000f7800a7
:10187c001e007800500d88000080fa000000060061
:10188c00809fbe003400f80000002000a0018800fa
:10189c000000fa008500a90010002000b04088006c
:1018ac00e04080000000e800e0408800e14080005b
:1018bc00401f2000808f50000d003a000000eb000c
:1018cc00e040880010002000a0408800d04080003c
:1018dc000000e800d0408800d14080008007200044
:1018ec00808f500002003a0010002000c040880099
:1018fc000080fa003400f9004f00be0000400600e2
:10190c000000fa000000eb0050088800a00f200037
:10191c00700888000002280090088800810a2000c6
:10192c009140780080cfb30000c060000004a0009c
:10193c00a8e0b7008500a9009500a80013e1a80055
:08194c000080fa000000060013
:020000040000fa
:10195400000800000e00000002000000000000006b
:10196400000000000000000000000000090000006a
:101974000e0800000600000000000000140800002b
:10198400060000000200000000000100000000004a
:101994001a08000004000000000000001e080000f7
:0c19a40002000000000000000000000035
:00000001FF
