:020000040000fa
:080000000002040000000000f2
:020000040000fa
:10040000cf8220000eff20000e01880000000000b7
:100410000c00070020e4200001002000110007006c
:10042000000020000000e000020032000000020096
:1004300000000000600a0200000000000040da0036
:100440000000fe004440a900000020000000e00081
:100450000300320000002000a00188004440a800f2
:100460000000060091018800800078000000eb0089
:1004700015003700e280400032a0b4009101ba00bc
:10048000e280400032a0b4009102ba00e280400055
:1004900032a0b4000002eb00472bde00f507b200eb
:1004a000602ce10004003a000059eb008301e900f0
:1004b000fdff3e00040037006128e100010032002a
:1004c0000082eb00040007001101ba000200e00006
:1004d000e8ff3a00000006003159ba008301e90044
:1004e0000c0032002159ba008301e90008003200f3
:1004f0000400e00003003a00e280400032a0b400b3
:10050000f5ff370011d9ba008301e900faff3a007c
:100510008100e800e180400032a0b4000000060045
:100520000040da000000fe0003f0a200889fbe0039
:100530008a9fbe008c1f7800a3010700aa01330028
:100540006450e1004f0032006420e10052003200ac
:1005500003826c0007003b000905d0000306d000b1
:10056000820f54000c065d000200390002003200c8
:1005700089017800030678008582550004003d005b
:100580000003fd008103fd008502ea008b85420027
:10059000840f720002003b0060001000e080180031
:1005a0006011b8000005eb007a28e1000a0039006c
:1005b00006007800c75ddd00f707b2008780750090
:1005c0002d003700828171000a017800610560000a
:1005d0008180d1000080d3008502e900f9ff3b0053
:1005e000060440008784480002003b0060041400b9
:1005f000e0841c000988a300070032008a81710092
:1006000082817100610164008904d1000884d300f3
:100610008b05e800170037000978a30013003a00a3
:100620000b00e000130034008b05e90008044400cf
:1006300089844c000a4474000978a3000d003a0034
:100640000b00e000070034008b05e90008044400bb
:1006500089844c0001003a000b0020000978a300b7
:10066000f7ff32000001eb000200370082817100c9
:100670000a017800190107000cf0a70001f0a000a2
:10068000620137006420e10002003a00838f6c00b1
:10069000620133000801be000200be005b013700aa
:1006a000889fbe008a9fbe008c1f7800460107000d
:1006b0004d01330003866c006450e1002e003200cf
:1006c0006420e100330032006150e1002f0032006d
:1006d0006120e1003100320085855500eb07b00054
:1006e0000900200008042000050037000804440029
:1006f00089844c000a0031000603430087834b00c5
:100700000001530081815b00f8ff33000203be004b
:100710000800a0000804440089844c00f6ff39005a
:10072000c639dd0083017300010032001300200090
:100730008904d1000884d3000998a3000500320081
:100740000800a7000300a0008904d1000884d3009a
:100750008b05e8008904d1000884d3000001eb0078
:100760000281d200dd00070001f0a1000cf0a7001b
:1007700001f0a000250137006420e10027013200cc
:100780000801be000200be00f7ff37006120e10053
:10079000220132006000b800f3ff370000002000a3
:1007a00001f82700f0ff3700889fbe008a9fbe0037
:1007b0008c9fbe000004be00ee0007000800be00d3
:1007c0006420e10048003e005500320072212700fd
:1007d000132b24005800070047003c000800be000f
:1007e000c2ec2800e32c2c00510007004700350024
:1007f0000800be0001f0a100020020000338230021
:100800004b000700430035000800be00b2a32a00d9
:1008100083fb2300260107000200200003f02300d1
:1008200001f0a70003f0a00040ff0700440007000c
:100830000005be007e00070001f0a2000006be0019
:100840000200280013f32300190107000801be006d
:1008500036ff0700809fbe000c00be003208280053
:10086000e3952b00120107004f01be002fff070088
:100870000006be000001be000d010700809fbe0003
:100880004241250083b8230009010700020020002f
:1008900003e8230025ff07000c01be000401070048
:1008a0000006be004f00be00f2f92b00c3d42300a7
:1008b000ff0007000200200003f023001bff0700d9
:1008c0000c01be0018ff07000001be000c00be00b6
:1008d00073ff07000200200003f0230013ff07004e
:1008e00061014500d00007004f06be004f05be0065
:1008f0004f04be000000060001f8270000002000a1
:100900002202200052418800f7ff37006000b80043
:10091000fbff370001f8230000002000f2ff370042
:1009200009f8a300f0ff32006000b800eeff3700c6
:100930001400200012013700f4ff2f0010013700cf
:100940000001be008b0007000470a70003f0a100a7
:100950006509b100160032000d0035006828e1007d
:1009600006003500f0ff2f00f1ff27000300e00034
:1009700013003b00010028000000050000004000bb
:10098000818048008502e900fcff3a00080037003a
:10099000f88f420002003c008000eb0000000500e0
:1009a0008100d1000080d3008502e800fcff3a00fe
:1009b0000300e00002003b0060001000e08018002f
:1009c000000006000001be006a0007000470a700d6
:1009d00003f0a10003f8a30013003a006509b10079
:1009e00010003200090035006928e10002003500de
:1009f0000100280000000500000040008180480040
:100a00008502e900fcff3a0000000600f88f420072
:100a1000050035008100d1000080d3008502e80088
:100a2000fcff3a00000006008000eb00000005001b
:100a3000889fbe008a9fbe00010578000100e0008b
:100a40000400350008003c000000e00020003200f7
:100a50000500370060001000e080180002003b0035
:100a600001f02c001a0037000004be006011b8002d
:100a70006b0920000982cf00020039000882cf00f4
:100a80000441b000694252000e00320008003b00f1
:100a900082817100610164008904d1000884d3005f
:100aa0008b05e8000442e800f9ff3a000500370032
:100ab0000804440089844c008b05e9000442e900e5
:100ac000fbff3a00050007000af0a70001f0a000b4
:100ad0004f05be004f04be0000000600810020004c
:100ae000618055000b003d000b00200061fe2f00cf
:100af0000100e1001d003400828171006101640089
:100b00008904d1000884d3000000e800faff3a000d
:100b100071002000610064000300700002006000aa
:100b20000900320061044400e0844c000988a500fb
:100b3000050032008b05e8006808e10002003a0079
:100b40008904d1000884d300f20f20000258e1008c
:100b500005003d00c75ddd00f907b2008980750022
:100b600008007800000006000bf827008b007800d2
:100b700000000500c70ade00f107b200f50fb20061
:100b800008003200e1cf4200020032000170a000f4
:100b900024000500810f70000100320004080500e8
:100ba00044000500810f700002003a0014000500a7
:100bb0008502e9000000400081c04800fcff3b00c6
:100bc0000170a000240005000004be00e9ff07003a
:100bd0000003be000405be000200be00e5ff0700e2
:100be000844f7500000006000200be006450e10062
:100bf000050036006420e100020036000968a30009
:100c000001003a000800be000160a0004f06780015
:100c10004f05be004f04be0000000600f0ff2f008d
:100c2000f1ff2700f9ff37000003be00d1ff0700e6
:100c30006220e100020032000600be000000060053
:100c400085024100e30f20000328e10005003c007d
:100c5000a3fe2f000328e10007003d00050020004f
:100c600001003700f50f20002002200050418800cd
:100c70006000b80008003700130020008381520094
:100c800005003d008100d1000080d3008301e80011
:100c9000fcff3a0005002000c72add00f107b20082
:100ca0008580700007f0a70001f0a000000006009a
:100cb000889fbe008a9fbe008c1f7800c2ff07007d
:100cc000c9ff330003866c006450e1002400320049
:100cd0006420e100270032006150e1002200320070
:100ce0006120e100210032008b854200eb07b1005a
:100cf0000134b800003ab8000804420089844a0070
:100d0000013ab8000030b8008880400009014a006c
:100d100004003300000040008180480002014900c7
:100d20008b05e900c909dd00830170000100320074
:100d300013002000c814de004814dd004709de005f
:100d40001200b200c808de000884700063ff0700cc
:100d500001f0a1000cf0a70001f0a000abff3700ec
:100d60006120e100adff32000801be000200be00bc
:100d7000f7ff37006150e100fcff3a00a7ff3700a2
:100d8000889fbe008a9fbe00841f78008eff0700e8
:100d90004f00780011003300f0ff2f00838f6c00ac
:100da00006003b00040565000a00a70008003700a4
:100db00009f0a6001000200008003700820f540040
:100dc000838f5c00030039001000200001003e000a
:100dd0000000200009f0a7000000ea004f05be0057
:0c0de0004f04be000000e0000000060010
:020000040000fa
:0200000401f009
:04000c00f9ff0000f8
:020000040000fa
:0200000401f009
:04001000fbff0000f2
:020000040000fa
:0200000401f009
:04001c00fdff0000e4
:020000040000fa
:1000080090020000900200009002000090020000a0
:100018009002000090020000900200009002000090
:100028009002000090020000900200009002000080
:100038009002000090020000900200009002000070
:10004800de0d000090020000900200009002000007
:100058009002000090020000900200009002000050
:100068009002000090020000900200009002000040
:100078009002000090020000900200009002000030
:100088009002000090020000900200009002000020
:100098009002000090020000900200009002000010
:1000a8009002000090020000900200009002000000
:1000b80090020000900200009002000090020000f0
:1000c80090020000900200009002000090020000e0
:1000d80090020000900200009002000090020000d0
:1000e80090020000900200009002000090020000c0
:1000f80090020000900200009002000090020000b0
:10010800900200009002000090020000900200009f
:10011800900200009002000090020000900200008f
:10012800900200009002000090020000900200007f
:10013800900200009002000090020000900200006f
:10014800900200009002000090020000900200005f
:10015800900200009002000090020000900200004f
:10016800900200009002000090020000900200003f
:10017800900200009002000090020000900200002f
:10018800900200009002000090020000900200001f
:10019800900200009002000090020000900200000f
:1001a80090020000900200009002000090020000ff
:1001b80090020000900200009002000090020000ef
:1001c80090020000900200009002000090020000df
:1001d80090020000900200009002000090020000cf
:1001e80090020000900200009002000090020000bf
:0801f8009002000090020000db
:020000040000fa
:10020800900200009002000090020000900200009e
:10021800900200009002000090020000900200008e
:10022800900200009002000090020000900200007e
:10023800900200009002000090020000900200006e
:10024800de0d000090020000900200009002000005
:10025800900200009002000090020000900200004e
:10026800900200009002000090020000900200003e
:10027800900200009002000090020000900200002e
:10028800900200009002000090020000900200001e
:10029800900200009002000090020000900200000e
:1002a80090020000900200009002000090020000fe
:1002b80090020000900200009002000090020000ee
:1002c80090020000900200009002000090020000de
:1002d80090020000900200009002000090020000ce
:1002e80090020000900200009002000090020000be
:1002f80090020000900200009002000090020000ae
:10030800900200009002000090020000900200009d
:10031800900200009002000090020000900200008d
:10032800900200009002000090020000900200007d
:10033800900200009002000090020000900200006d
:10034800900200009002000090020000900200005d
:10035800900200009002000090020000900200004d
:10036800900200009002000090020000900200003d
:10037800900200009002000090020000900200002d
:10038800900200009002000090020000900200001d
:10039800900200009002000090020000900200000d
:1003a80090020000900200009002000090020000fd
:1003b80090020000900200009002000090020000ed
:1003c80090020000900200009002000090020000dd
:1003d80090020000900200009002000090020000cd
:1003e80090020000900200009002000090020000bd
:0803f8009002000090020000d9
:020000040000fa
:100dec000600fa00000f78001e0078001000780052
:100dfc00640060000000e000260032001e00780055
:100e0c00a0009000e03f2000808f500021003e00a9
:100e1c001e00780010007800610060000000e00007
:100e2c001c0032009e007800f0fe2f00910860003c
:100e3c009e00780070ff2f00910860001e00780063
:100e4c00100090008000e8001e007800110098004f
:100e5c001e00780090009000900c2000808f5000b5
:100e6c0008003a001e007800200090008000e80086
:100e7c001e007800210098009e0078000000eb0016
:100e8c00900098001e007800200090002007980029
:100e9c00ab0037009e007800b0ff2f009108600077
:100eac001e00780010007800610060000000e00077
:100ebc00780032001e00780010007800620060009c
:100ecc000000e00008003a001e00780010007800d6
:100edc00680060000000e00003003a001e0078008b
:100eec001040a0000d0037001e00780010007800a4
:100efc00620060000000e00008003a001e0078006c
:100f0c0010007800680060000000e0000300320070
:100f1c009e00780060092000a00098001e00780058
:100f2c001010a0001e007800100078007000600007
:100f3c000000e000120032001e0078001000780063
:100f4c00680060000000e0000d003a001e00780010
:100f5c00200090008000e8001e007800210098001e
:100f6c001e007800a0009000f03f2000808f500001
:100f7c0003003a009e007800f0fe2f0091086000fc
:100f8c001e00780010007800680060000000e0008f
:100f9c00680032009e007800f0fe2f00910860007f
:100fac001e007800100078004600de0061406000f2
:100fbc000080fb00100798001e0090000000e0006d
:100fcc001c0032001e009000e10f500001003200a6
:100fdc00580037001e007800200090008000e800c8
:100fec001e007800210098001e007800a0009000e0
:100ffc00e03f2000808f50004e0036001e0078002d
:10100c00100078004600de00614060000004a20081
:10101c00614060009e0078000080fb006100600071
:10102c004601dd00f0fb2f00910860009108710073
:10103c00400037001e007800200090008000e9007e
:10104c001e007800210098001e007800a00090007f
:10105c0050092000808f500036003e001e007800a2
:10106c00100078004600de00614060000004a20021
:10107c00614060009e0078000080fb006100600011
:10108c004601dd00f0fb2f00910860009108710013
:10109c00280037001e007800100078006100600006
:1010ac000000e00023003a001e00780010007800d9
:1010bc00620060000000e000060032009e00780034
:1010cc0000022000910870009e007800d0ff2f00d5
:1010dc00910860001e00780090007800000220004b
:1010ec00008060000000e000120032001e0078005a
:1010fc00200090008000e9001e007800210098007c
:10110c001e00780020009000e10f400009003a001a
:10111c009e007800f0fd2f00910860009e00780082
:10112c000000eb00a00098009e0078000000eb008f
:10113c00800878001e00780020009000200798009e
:10114c002e0090000080fa00000006000800fa0053
:10115c00a0812000000f7800cbc2bf008040eb00c4
:10116c00614798000004e0000200350012c0b30093
:10117c00624798009e0078006e4190000280fb0050
:10118c00610060004301dd0070ff2f0091086000da
:10119c00910871001e007800430107000000e00078
:1011ac00430032001e007800100078006740600099
:1011bc000080fb00200798002e009000e10f5000eb
:1011cc0012003200ae009000e18f500004003c0091
:1011dc002e0190000200e0000800320034003700bd
:1011ec002e009000e30f500021003200ae00900062
:1011fc00e58f50002c0032002d00370001802000bc
:10120c00e0ff2f009108600029003700a04080000b
:10121c000000e800a0408800a0408000e10f5000d2
:10122c000a003a0001802000f0fe2f0091086000b7
:10123c0001802000b0ff2f00910860000180200089
:10124c00401f2000a000980019003700a04080002b
:10125c00e20f500016003a00008020001020a00081
:10126c000180200040062000a000980010003700ec
:10127c000080200010007800610060000000e00099
:10128c000b003a00008020001000a000018020001c
:10129c0070ff2f00910860000180200000042000e6
:1012ac0091087000020037000000eb00a04088009d
:1012bc0060812000000f7800cbc2bf000080fb00d3
:1012cc004600de000004a200614060006140600046
:1012dc00614060009e0078000080fb0061006000af
:1012ec004301dd0070ff2f00910860009108710030
:1012fc001e007800ec0007000000e0002200320025
:10130c001e00780010007800674060000080fb0031
:10131c00100798001e019000e10f51000e003200e2
:10132c001e009000e30f5000120032009e0090004f
:10133c000100e00001003200130037008180200022
:10134c0070ff2f009108600081802000e0ff2f00cb
:10135c00910860000c00370081802000f0fe2f0007
:10136c009108600081802000401f2000a0009800a0
:10137c0005003700808020001000a0008180200034
:10138c0000042000910870000080fa0000000600a4
:10139c000000fa000080200010007800610060005e
:1013ac000000e0000e0032000080200030009000b1
:1013bc008000e800008020003100980000802000b0
:1013cc00b000900090072000808f500007003a007a
:1013dc0001802000e0ff2f0091086000030037001f
:1013ec00018020000000eb00b000980080802000fd
:1013fc0010007800610060000000e0000d00320079
:10140c0080802000300090008000e8008080200068
:10141c00310098008080200030009000f50f5000c3
:10142c0007003a0081802000e0ff2f009108600047
:10143c0003003700818020000000eb00b000980012
:10144c000080fa00000006000000fa0080802000f6
:10145c0010007800610060000000e00010003a000d
:10146c000080200010007800610060000000e000a7
:10147c000b003a00f0408000ea0f50000b003200e5
:10148c00f04080000000e800f0408800f040800050
:10149c00ea0f500005003a00cda2a9000300370066
:1014ac000000eb00f0408800cda2a8000080fa00fc
:1014bc00000006000000fa00460007003700070095
:1014cc00db0107005a0107000000eb000027880031
:1014dc000000eb0010278800c902a900c8e2a9008f
:1014ec00cce2a800c9a2a900c022a900cda2a800e4
:1014fc00000037000060fe00104180000000e0009a
:10150c00190032000000eb00104188009040800070
:10151c000000e8009040880090408000ea0f5000e6
:10152c0003003a000000eb009040880007ff070022
:10153c00804080000000e8008040880080408000ef
:10154c00e20f500002003a000000eb0080408800df
:10155c008080200022fe07007d0107000080200013
:10156c001ffe070086010700004180000000e0001c
:10157c00030032000000eb0000418800b2ff0700be
:10158c00204180000000e000daff32000000eb0098
:10159c00204188007eff0700d6ff37000000fa00cc
:1015ac0070012000403a880051742000914078006e
:1015bc0080cfb30000c0600045e7b70042c7bf0052
:1015cc000042b2000004e000fcff32000080fa0090
:1015dc00000006000000fa000000eb002004880068
:1015ec000000eb00300488000000eb006004880071
:1015fc000080fa00000006000200fa000000eb0078
:10160c00002788000000eb0010278800c902a90001
:10161c00c8e2a900cce2a80071a0a8006ec0a80086
:10162c0071c0a8006ee0a80010c0b300004f780095
:10163c00c2c2bf00684060000004e00003003a0032
:10164c001e4078000040e800004f7800cac2bf007e
:10165c00644060000004e00003003a001e40780083
:10166c0000c0e800004f7800c2c2bf0064406000b8
:10167c000004e00003003a001e4078006440400083
:10168c00004f7800cac2bf00684060000004e00050
:10169c0003003a001e40780068404000004f78007c
:1016ac000080fa00000006000800fa00000f780025
:1016bc001e00780010007800700060000000e00050
:1016cc0023003a001e0078001040a0001e00780095
:1016dc00100078004300de00614060000080fb00d9
:1016ec00300798003e0090000000e0000a00320035
:1016fc00be009000e18f5000010032001400370052
:10170c001e007800f1012f001088600001502000ad
:10171c00108870000e0037001e007800100090003a
:10172c000074a1000040e8000074a1009e01780044
:10173c008080fb00f0072000008160009300900087
:10174c0000f82f00008060000200700090019800eb
:10175c001e007800100078004300de00614060003d
:10176c000080fb00200798002e0090000000e00095
:10177c0055003200ae009000e18f500001003200a5
:10178c00a60037001e007800100090000074a10025
:10179c008080fb0070022000808f500012003c0003
:1017ac001e007800100090000074a1000080fb0067
:1017bc00e20f50000c0034001e007800100078007e
:1017cc0067006000e40f5000070032001e00780034
:1017dc0081ff2f00108860001020a0001000200056
:1017ec00100798008f0037001e007800100078005a
:1017fc004500de000074a1008080fb008002200008
:10180c00808f50002a003c001e00780010007800e9
:10181c004500de000074a1000040e8000074a10047
:10182c009e0078000081fb00f007200000006100a2
:10183c004501dd00f0012f00910860009108710056
:10184c001e007800100078004500de008040780013
:10185c000174a10090c2b30080cf500006003a0082
:10186c009e00780080ff2f0091086000110020007e
:10187c00110798006b0037001e007800900078006c
:10188c0000fe20008080600000042000808f50004b
:10189c0007003a001e00780081ff2f0010886000be
:1018ac001010a00010002000100798005d003700f9
:1018bc001e0178009200900000f82f00008060005c
:1018cc0010019800550037001e00780010007800b9
:1018dc004500de000074a1008080fb007002200037
:1018ec00808f500013003c001e0078001000780020
:1018fc004500de000074a1000080fb00e20f5000e8
:10190c000c0034001e0078001000780067006000a6
:10191c00e10f5000070032001e00780081ff2f00fd
:10192c00108860001000a000110020001107980022
:10193c003c0037001e007800100090000074a100dd
:10194c008080fb0080022000808f500030003c0023
:10195c001e007800100090000074a1000040e80008
:10196c000074a1009e0178008080fb00f00720002d
:10197c00008160009300900000f82f000080600050
:10198c0002007000900198001e007800100090007a
:10199c00804078000174a10090c2b30080cf500049
:1019ac000d003a001e0078001000780067006000ff
:1019bc00e50f5000160032001e00780081ff2f004a
:1019cc00108860009000780065887000100020007e
:1019dc0010079800130037001e007800900090004c
:1019ec00f007200000806000e20f500008003a0071
:1019fc001e00780081ff2f00108860009000780096
:101a0c006388700010002000100798000500370054
:101a1c009e007800f0012f00910860008000eb0020
:101a2c00110798001e0090000080fa0000000600cc
:101a3c000000fa000000eb00d00c88000000eb0066
:101a4c00e00c88000000eb00000d8800f0ff200087
:101a5c00f00c880060c02100d00c8800f001200040
:101a6c00e00c88000000eb00200d88000000eb006b
:101a7c00300d88000000eb00500d8800f0ff2000b6
:101a8c00400d880060c02100200d8800f00120006e
:101a9c00300d88000080fa00000006000a00fa00f1
:101aac002007980040e12a00310a24003bfb070084
:101abc000200200003f8230098fa07000001be0082
:101acc0000002c00f1472400f2fa0700008fbe0042
:101adc002e009000cf80de00d2fb0700300798006c
:101aec00410798002e0090000000e00007003d0028
:101afc0002002000037824003e009000ce009000ed
:101b0c0087fa070030079800410798003e009000c4
:101b1c00ce009000a2702d0033ba230061fc0700a8
:101b2c001efb07000200200003f823007bfa0700cd
:101b3c000001be001e00be005afc0700008fbe0054
:101b4c001e00be009cfb07000080fa00000006008f
:101b5c000400fa00100798001e009000cfff070049
:101b6c00000f78001e0078004200dd00000f7800a6
:101b7c001e007800000d88000080fa0000000600ae
:101b8c000400fa00100798001e009000c3ff070025
:101b9c00000f78001e0078004200dd00000f780076
:101bac001e007800500d88000080fa00000006002e
:101bbc00809fbe003400f80000002000a0018800c7
:101bcc000000fa008500a9001000200010418800d8
:101bdc00404180000000e800404188004141800005
:101bec00401f2000808f50000d003a000000eb00d9
:101bfc0040418800100020000041880030418000e6
:101c0c000000e8003041880031418000800720004e
:101c1c00808f500002003a00100020002041880004
:101c2c000080fa003400f9004f00be0000400600ae
:101c3c000000fa000000eb0050088800a00f200004
:101c4c00700888000002280090088800810a200093
:101c5c009140780080cfb30000c060000004a00069
:101c6c00a8e0b7008500a9009500a80013e1a80022
:081c7c000080fa0000000600e0
:020000040000fa
:101c84000008000014000000020000000000000032
:101c94000000000000000000000000000000000040
:101ca4000001000009000000140800000c000000fe
:101cb40000000000200800000600000002000000f0
:101cc40000000100000000002608000004000000dd
:101cd400000000002a0800000200000000000000cc
:041ce40000000000fc
:00000001FF
